:1000000008C1000037C1000035C1000033C1000045
:1000100031C100002FC100002DC100002BC1000024
:1000200029C1000027C1000025C1000023C1000034
:1000300021C100001FC100001DC100001BC1000044
:1000400019C1000017C1000015C1000013C1000054
:1000500011C100000FC100000DC100000C948E0CF6
:1000600009C1000050C4000025C4000003C1000005
:1000700001C10000FFC00000FDC00000FBC0000087
:10008000F9C00000F7C00000F5C00000F3C0000098
:10009000E7C30000BCC30000EDC00000EBC00000DF
:1000A000E9C00000E7C00000E5C00000E3C00000B8
:1000B000E1C00000DFC00000DDC00000DBC00000C8
:1000C000D9C00000D7C00000D5C0000076C3000032
:1000D0004BC30000CFC000001DC30000F2C20000EF
:1000E000C9C000000B120E12FD11011205124512BB
:1000F000121216121C12201224122A122E1232125E
:10010000451238123C124012000021002400270042
:100110002A002D0030003300010100000401070116
:100120000A0100002200250028002B002E003100CB
:10013000340002010000050108010B010505050559
:10014000070508080808020202020A0A080804044F
:10015000040401010101010101010303030303037D
:100160000303040707070C0C0C0C0C0C0C0C02020C
:10017000020206060606060606060B0B0B0B0B0B09
:100180000B0B010210202008081020401020408096
:10019000020102010804020101020408102040804B
:1001A00080402010080402018004020180402010D9
:1001B0000804020108040201010204081020408022
:1001C000010204081020408000000A0B02090C0DF7
:1001D0000E080703040100000000000000000000FA
:1001E000000000000000000000000000000000000F
:1001F00000000000121110000000000000000000CC
:1002000000000000000000000000000000009B1241
:100210006F1211241FBECFEFD1E2DEBFCDBF00E0D1
:100220000CBF12E0A0E0B2E0E0E1FAE200E00BBFB8
:1002300002C007900D92A035B107D9F725E0A0E5DF
:10024000B2E001C01D92AD35B207E1F711E0C8E0A0
:10025000D1E000E006C021970109802FFE010E9435
:10026000B613C730D10780E00807A9F70E94930DA5
:100270000C94F714C5CE089580E090E00895FC0139
:10028000538D448D252F30E0842F90E0821B930BFB
:10029000541710F0CF96089501970895FC01918DA1
:1002A000828D981761F0828DDF01A80FB11D5D96D8
:1002B0008C91928D9F5F9F73928F90E008958FEF46
:1002C0009FEF0895FC01918D828D981731F0828DFA
:1002D000E80FF11D858D90E008958FEF9FEF089551
:1002E000FC01918D228D892F90E0805C9F4F821BB5
:1002F00091098F739927089582E592E0F1DF21E05B
:10030000892B09F420E0822F08958FEE92E0E8DF38
:1003100021E0892B09F420E0822F08958CE893E0F6
:10032000DFDF21E0892B09F420E0822F089589E2A4
:1003300094E0D6DF21E0892B09F420E0822F089594
:10034000FC01848DDF01A80FB11DA35ABF4F2C9172
:10035000848D90E001968F739927848FA689B78941
:100360002C93A089B1898C91837080648C93938D38
:10037000848D981306C00288F389E02D80818F7DDB
:1003800080830895EF92FF920F931F93CF93DF9393
:10039000EC0181E0888F9B8D8C8D981305C0E889D6
:1003A000F989808185FD25C0F62E0B8D10E00F5F49
:1003B0001F4F0F731127E02E8C8DE8120BC00FB664
:1003C00007FCFACFE889F989808185FFF5CFCE0156
:1003D000B7DFF2CF8B8DFE01E80FF11DE35AFF4F1F
:1003E000F0829FB7F8940B8FEA89FB898081806245
:1003F0000AC09FB7F894EE89FF896083E889F9897C
:1004000080818370806480839FBF81E090E0DF9172
:10041000CF911F910F91FF90EF900895CF93DF93AD
:10042000EC01888D8823C1F0EA89FB89808185FDF4
:1004300005C0A889B9898C9186FD0EC00FB607FC4E
:10044000F5CF808185FFF2CFA889B9898C9185FF8E
:10045000EDCFCE0175DFE8CFDF91CF91089580E039
:1004600090E0892B19F063DF811116C080E090E0E5
:10047000892B19F053DF811112C080E090E0892BA5
:1004800019F043DF81110EC080E090E0892B79F0F4
:1004900033DF81110AC008950E940000E7CF0E9457
:1004A0000000EBCF0E940000EFCF0C9400000895F5
:1004B000FC0127852223C9F0868D978D8130910517
:1004C00071F02CF4892B89F489E294E00DC082301C
:1004D000910541F0039749F482E592E005C08CE86C
:1004E00093E002C08FEE92E0FBCE80E090E00895B2
:1004F000FC01DB0112962D913C91139737FD04C04E
:100500004D915C9157FF0BC01782108611861286A1
:100510001386148615861686CF01079608956BE01C
:10052000649FC001659F900D11240190F081E02D22
:10053000E80FF91F4AE0429FC001439F900D11242C
:100540000190F081E02D8E0F9F1F0895CF93DF93D0
:10055000EB01BC01FC0184819581CADF488159818E
:100560006A817B81FC014083518362837383DF91C5
:10057000CF910895BC01FC0184819581B9CF089584
:100580000E94F314FC018785882359F1868D978D8D
:100590008130910589F01CF4892B39F0089582305F
:1005A000910589F00397B1F00895428D538D608DC8
:1005B000718D89E294E014C0428D538D608D718DF0
:1005C0008CE893E00DC0428D538D608D718D8FEE60
:1005D00092E006C0428D538D608D718D82E592E070
:1005E000C7C50895CF93DF93FC0127852223E1F04F
:1005F000EC01868D978D8130910571F02CF4892B5B
:1006000091F489E294E00DC08230910541F00397A6
:1006100051F482E592E005C08CE893E002C08FEED1
:1006200092E00E94570C1F86DF91CF910895EF92C0
:10063000FF920F931F93CF93DF93EC018B017A010D
:100640008F85882339F0E881F9810680F781E02DD4
:10065000CE01199501301105D1F064F4012B49F553
:10066000A701FF0C660B770B89E294E084D71F8EFD
:100670001E8E1DC00230110589F003301105C9F42A
:10068000A701FF0C660B770B82E592E00DC0A70176
:10069000FF0C660B770B8CE893E006C0A701FF0CFC
:1006A000660B770B8FEE92E066D71F8F0E8F81E07F
:1006B0008F878F85DF91CF911F910F91FF90EF90E2
:1006C00008951F920F920FB60F9211240BB60F923E
:1006D0002F933F934F935F936F937F938F939F934A
:1006E000AF93BF93EF93FF9382E592E029DEFF91F2
:1006F000EF91BF91AF919F918F917F916F915F919A
:100700004F913F912F910F900BBE0F900FBE0F9006
:100710001F9018951F920F920FB60F9211240BB6CF
:100720000F922F933F934F935F936F937F938F938A
:100730009F93AF93BF93EF93FF9382E592E00E9464
:10074000750CFF91EF91BF91AF919F918F917F9128
:100750006F915F914F913F912F910F900BBE0F9032
:100760000FBE0F901F9018951F920F920FB60F9209
:1007700011240BB60F922F933F934F935F936F9378
:100780007F938F939F93AF93BF93EF93FF938FEEDE
:1007900092E0D6DDFF91EF91BF91AF919F918F9144
:1007A0007F916F915F914F913F912F910F900BBE71
:1007B0000F900FBE0F901F9018951F920F920FB6BB
:1007C0000F9211240BB60F922F933F934F935F9389
:1007D0006F937F938F939F93AF93BF93EF93FF9309
:1007E0008FEE92E00E94750CFF91EF91BF91AF9157
:1007F0009F918F917F916F915F914F913F912F9139
:100800000F900BBE0F900FBE0F901F9018951F9268
:100810000F920FB60F9211240BB60F922F933F93A6
:100820004F935F936F937F938F939F93AF93BF93F8
:10083000EF93FF938CE893E083DDFF91EF91BF91FD
:10084000AF919F918F917F916F915F914F913F9168
:100850002F910F900BBE0F900FBE0F901F90189509
:100860001F920F920FB60F9211240BB60F922F9377
:100870003F934F935F936F937F938F939F93AF9328
:10088000BF93EF93FF938CE893E00E94750CFF9168
:10089000EF91BF91AF919F918F917F916F915F91F8
:1008A0004F913F912F910F900BBE0F900FBE0F9065
:1008B0001F9018951F920F920FB60F9211240BB62E
:1008C0000F922F933F934F935F936F937F938F93E9
:1008D0009F93AF93BF93EF93FF9389E294E030DD52
:1008E000FF91EF91BF91AF919F918F917F916F9108
:1008F0005F914F913F912F910F900BBE0F900FBEC4
:100900000F901F9018951F920F920FB60F921124FF
:100910000BB60F922F933F934F935F936F937F93F9
:100920008F939F93AF93BF93EF93FF9389E294E0EC
:10093000DCD7FF91EF91BF91AF919F918F917F9104
:100940006F915F914F913F912F910F900BBE0F9040
:100950000FBE0F901F9018950F931F93CF93DF93A7
:10096000EC011B821A828C819D818617970774F493
:100970008B0188819981009711F00E946A141D8370
:100980000C83C8010E94D21399838883DF91CF9191
:100990001F910F9108950F931F93CF93DF93FC0145
:1009A000008111810115110529F4DF91CF911F916B
:1009B0000F91D2CFEC0175836483CB010E94D213D7
:1009C00099838883D80180E090E02A813B81821757
:1009D000930744F42D91E881F981E80FF91F2083F2
:1009E0000196F3CFC801DF91CF911F910F910C9425
:1009F0006A140F931F93CF93DF93EC018B016A81ED
:100A00007B816F5F7F4F8C819D818617970714F4E0
:100A1000CE01C1DFF8012081E881F9818A819B81C3
:100A2000E80FF91F20838A819B819C012F5F3F4F34
:100A30003B832A83DF91CF911F910F910895CF922D
:100A4000DF92EF92FF920F931F93CF93DF931F924A
:100A5000CDB7DEB7FC012785222309F471C07B01E5
:100A6000868D978D81309105E1F04CF4892B09F04A
:100A700067C0C12CD12C8F010E5E1F4F26C0823063
:100A8000910549F0039709F05BC0C12CD12C8F016F
:100A90000E5E1F4F51C0C12CD12C8F010E5E1F4F17
:100AA00039C0C12CD12C8F010E5E1F4F21C089E2AD
:100AB00094E0F4DB97FD47C08983BE016F5F7F4FF1
:100AC000C80197DFFFEFCF1ADF0ACE14DF047CF3F3
:100AD000C7013AC08CE893E0E1DB97FD34C089831D
:100AE000BE016F5F7F4FC80184DF8FEFC81AD80A3D
:100AF000CE14DF047CF3ECCF8FEE92E0CFDB97FDDA
:100B000022C08983BE016F5F7F4FC80172DFEFEFA4
:100B1000CE1ADE0ACE14DF047CF3DACF82E592E04F
:100B2000BDDB97FD10C08983BE016F5F7F4FC80199
:100B300060DFFFEFCF1ADF0ACE14DF047CF3C8CFEB
:100B400080E090E001C0C6010F90DF91CF911F912E
:100B50000F91FF90EF90DF90CF900895FC0180817E
:100B60009181009711F00C946A140895FC01808122
:100B70009181009711F00C946A140895CF93DF933C
:100B8000EC0180E392E099838883CE014896E6DF0A
:100B9000CE014296DF91CF91E1CFCF93DF93EC016D
:100BA000EDDFCE01DF91CF910C946A14FC0120910E
:100BB000170530911805808191812817390751F464
:100BC00081E04091190550911A0522813381421725
:100BD000530709F080E008950F931F93CF93DF939D
:100BE000EC018B016817790711F11B821A82DB0176
:100BF00012966D917C91139716161706C4F4ACDE0D
:100C000080E090E0F80122813381821793076CF431
:100C10000190F081E02DE80FF91F2081E881F98132
:100C2000E80FF91F20830196EDCF3B832A83CE0185
:100C3000DF91CF911F910F9108956F927F928F92C4
:100C40009F92AF92BF92CF92DF92EF92FF920F935B
:100C50001F93CF93DF93CDB7DEB72D970FB6F894E0
:100C6000DEBF0FBECDBF5C014B01FC0180859185CD
:100C700001978A30910578F4FC01E05FFD4FE08038
:100C80000E2C000CFF08FC01EA5FFD4F0081002ED6
:100C9000000C110B04C0E12CF12C00E010E01886D0
:100CA0001F821A8619861C861B86B801CE010796FC
:100CB00053DE80915002909151028130910529F0CC
:100CC000029721F5C12CD12C14C0C12CD12C37E0B6
:100CD000632E712CCE14DF04E4F4B3016C197D098A
:100CE0006A0D7B1DCE01079684DEFFEFCF1ADF0A67
:100CF000F1CFCE14DF046CF4B5016C0D7D1DCE0177
:100D0000079677DE8FEFC81AD80AF3CF8FE090E00E
:100D10007EC089859A85801791070CF071C01A8270
:100D200019821C821B821E821D82B801CE0101968F
:100D300013DEAA24AA94BA2C8B819C818017910778
:100D40000CF05BC01C821B8269857A85C8010E94F9
:100D5000811377FF02C06F5F7F4F7595679580E0C5
:100D600090E020E030E0712C261737075CF4A501F5
:100D7000082E01C0440F0A94EAF7742A2F5F3F4FF0
:100D80000896F2CF7B0183E0EE0CFF1C8A95E1F719
:100D9000C12CD12C89859A85C816D9063CF5EF81DE
:100DA000F885EC0DFD1D808187218D87BE01635F75
:100DB0007F4FCE0101961DDEEF81F885EC0DFD1D04
:100DC0008081082E000C990B0E2C02C095958795FA
:100DD0000A94E2F787218D87BE01635F7F4FCE01C2
:100DE000019607DEFFEFCF1ADF0AD4CFBE016F5F97
:100DF0007F4FCE010796F0DE9FCFCE010196AEDE8B
:100E0000E984FA84E016F10641F08DE090E0F40107
:100E100091838083E12CF12C33C06091390570916E
:100E20003A05600F711F80913B0590913C05861734
:100E300097071CF487E395E0AEDD20E030E04985BC
:100E40005A858091390590913A052417350794F415
:100E5000EF81F885E20FF31F4081E0913705F091B3
:100E600038058E0F9F1FFC01E20FF31F40832F5F99
:100E70003F4FE5CF840F951F90933A058093390536
:100E8000CE0107966BDEC7012D960FB6F894DEBF34
:100E90000FBECDBFDF91CF911F910F91FF90EF90CB
:100EA000DF90CF90BF90AF909F908F907F906F908A
:100EB0000895FC011182108213821282158214821D
:100EC00012861186108617828FEF868308954F92BF
:100ED0005F926F927F928F929F92AF92BF92CF92CA
:100EE000DF92EF92FF920F931F93CF93DF93CDB7D3
:100EF000DEB72A970FB6F894DEBF0FBECDBFDC0178
:100F0000AD90BC90B7FC07C080914105909142051F
:100F10008A159B053CF48FEF9FEF9A8389839C830E
:100F20008B8303C12BE02A9DC0012B9D900D1124C2
:100F300000913F0510914005080F191FFE013196E1
:100F40003F01CF0135D589E090E09A878987D801A4
:100F50001296ED90FC901397B7016F5F7F4F149638
:100F60008D919C911597861797070CF070C08D9006
:100F70009C9011978114910439F413961C921E923F
:100F80001297C8012DD563C0F80175836483613C55
:100F9000FCE07F0738F42AE0269FC001279F900DD0
:100FA000112402C08FEF9FEF0E94D2132C016C011D
:100FB0008FEFE816F80649F0C601FAD49AE0C90E98
:100FC000D11CA1E0EA1AF108F3CFF8014082518266
:100FD000D40120E030E0F80182819381281739079D
:100FE0009CF540815181CD0188199909FA01E80FDA
:100FF000F91FAE17BF0721F1EC901196FC901197E5
:1010000012967C91129713966C91139714965C919B
:10101000149715964C91159716969C9116971796BE
:101020008C911797E082F1827283638354834583A6
:101030009683878318968D919C91199791878087C5
:101040002F5F3F4F1A96C7CFC4010E946A14D80180
:1010500012962D913C9113974AE0429FC001439F05
:10106000900D1124ED91FC91E80FF91F6E167F068B
:10107000A1F079816A815B814C813D812E819F81C4
:101080008885708361835283438334832583968369
:10109000878389859A8591878087F80122813381AA
:1010A0002F5F3F4F338322834AE0429FC001439F1B
:1010B000900D11240190F081E02DE80FF91F3A976F
:1010C0008085918501978A30910540F4FC01EA5FA3
:1010D000FD4F4081042E000C550B02C040E050E053
:1010E000D80119966D917C911A97460F571F1A9641
:1010F0005C934E9319978A30910540F4FC01E05FB0
:10110000FD4F8081082E000C990B02C080E090E01A
:10111000F80147815085840F951F90878783BA8295
:10112000A982215031093C832B838FE395E09E8374
:101130008D8329813A814B815C816D817E8180E044
:1011400090E02A960FB6F894DEBF0FBECDBFDF91B8
:10115000CF911F910F91FF90EF90DF90CF90BF90B4
:10116000AF909F908F907F906F905F904F90089579
:10117000CF92DF92EF92FF920F931F93CF93DF9363
:101180006C017A018B01C0E0D0E0CE15DF0581F063
:10119000D8016D918D01D601ED91FC910190F08106
:1011A000E02DC6011995892B11F02196EECF7E0115
:1011B000C701DF91CF911F910F91FF90EF90DF90CA
:1011C000CF900895EF92FF920F931F93CF93DF93E9
:1011D0008C01C0913F05D09140052097F9F0FE01A8
:1011E0003297208131814BE0429FC001439F900D97
:1011F0001124C80FD91F9E012B9780913F05909114
:1012000040058217930719F0CE01B0DCF4CF0297A6
:101210000E946A141092400510923F0510934405F5
:10122000009343057801013A8BE0180740F42BE066
:10123000209FC001219F900D1124029602C08FEFC4
:101240009FEF0E94D213EC01099319938E0181E064
:10125000E81AF10828F0C8012CDE055F1F4FF7CF10
:10126000D0934005C0933F05DF91CF911F910F911F
:10127000FF90EF9008956F927F928F929F92AF921E
:10128000BF92DF92EF92FF920F931F93CF93DF9362
:10129000CDB7DEB72B970FB6F894DEBF0FBECDBF2C
:1012A0008C01D62EE0904105F090420537018FEF7A
:1012B000681A780A80914305909144058615970530
:1012C0000CF07EC0A0903F05B0904005A114B10481
:1012D00039F41092420510924105C30173DF70C0CA
:1012E0007092440560924305E1EA6E16EBE07E06DB
:1012F00040F42BE0269DC001279D900D11240296FD
:1013000002C08FEF9FEF0E94D213FC016192719295
:101310004F013F01FFEFEF16FF0649F0C301C9DDA2
:101320008BE0680E711CE1E0EE1AF108F3CF9092A9
:10133000400580923F057501612C712C809141051B
:1013400090914205681679061CF5C7018A199B0918
:1013500080903F0590904005880E991EB701C4010A
:101360007BD3F7018681F4018683F701878190851D
:10137000F40190878783F70181859285F401928734
:101380008187FFEF6F1A7F0A8BE0E80EF11CD6CF42
:10139000F501929182914F012BE0289F7001299FC6
:1013A000F00C1124EA0CFB1CAE14BF0431F0FBE07E
:1013B000EF1AF108C701DADBF7CFC4010E946A1403
:1013C000CE01019676DD20914105309142058BE0FA
:1013D000B82EB29EC001B39E900D1124E0903F053F
:1013E000F0904005E80EF91EBE016F5F7F4FC70108
:1013F00033D38F81F701868388859985908787838A
:101400008A859B8592878187CE010196AFDBE0902C
:101410004105F090420597012F5F3F4F3093420501
:1014200020934105B29EC001B39E900D11240B97ED
:1014300020913F0530914005820F931FFC011382DC
:1014400012822481358137FF03C060E070E0C8D28A
:1014500020914105309142054BE0429FC001439FDE
:10146000900D1124E0913F05F0914005E80FF91F20
:101470003B97D682F801F182E0828FEF9FEF938352
:101480008283C80124DD29833A834B835C836D8387
:101490007E8386E0FE013196D801149601900D926C
:1014A0008A95E1F7C80113DD29833A834B835C8376
:1014B0006D837E8386E0FE013196D8011A960190F5
:1014C0000D928A95E1F7C80102DD29833A834B83A7
:1014D0005C836D837E8386E0FE013196D801509651
:1014E00001900D928A95E1F7C801F1DC29833A83D6
:1014F0004B835C836D837E8386E0FE013196D80149
:10150000569601900D928A95E1F7C801E0DC298397
:101510003A834B835C836D837E8386E0FE01319644
:10152000D8015C9601900D928A95E1F7C801CFDC55
:1015300029833A834B835C836D837E8386E0FE013F
:101540003196D801929601900D928A95E1F72B96EB
:101550000FB6F894DEBF0FBECDBFDF91CF911F91C4
:101560000F91FF90EF90DF90BF90AF909F908F9082
:101570007F906F900895CF92DF92EF92FF92CF937A
:10158000DF93EC016A017B01E889F98982E08083BD
:101590004115514E61057105B1F060E079E08DE3D0
:1015A00090E0A70196010E949413DA01C901019706
:1015B000A109B109B695A795979587959C01211525
:1015C00080E13807A8F0E889F989108260E874E8BA
:1015D0008EE190E0A70196010E949413DA01C901FF
:1015E0000197A109B109B695A795979587959C0193
:1015F000EC85FD853083EE85FF852083188EEC8990
:10160000FD8986E08083EA89FB898081806180830F
:10161000EA89FB89808188608083EA89FB898081EF
:1016200080688083EA89FB8980818F7D8083DF9158
:10163000CF91FF90EF90DF90CF9008953F924F921F
:101640005F926F927F928F929F92AF92BF92CF9252
:10165000DF92EF92FF920F931F93CF93DF93CDB75B
:10166000DEB72F970FB6F894DEBF0FBECDBF6C016B
:101670004B013A01FC018085918501978A309105E3
:1016800078F4FC01E05FFD4FE0800E2C000CFF08B9
:10169000FC01EA5FFD4FA0800A2C000CBB0804C0CF
:1016A000E12CF12CA12CB12C18861F821A861986E8
:1016B0001C861B86B501CE0107964ED984010A0D02
:1016C0001B1D0150110997FC28C080913305909192
:1016D0003405081719070CF508151905F4F0081951
:1016E00019090F5F1F4FB801CE01079635D980E069
:1016F00090E0E0913105F0913205E80FF91FE80D17
:10170000F91D2081EF81F885E80FF91F20830196EC
:101710008017910774F31A87098769857A856E1592
:101720007F0509F46FC06E157F050CF46DC01A8239
:1017300019821C821B821E821D8277FF02C06F5F8E
:101740007F4F75956795CE01019606D949845A84D5
:1017500088248A94982C09851A85E016F1060CF0E5
:101760004DC01C821B82C201B801CBD780E090E043
:1017700020E030E0312C261737075CF4A401082E56
:1017800001C0440F0A94EAF7342A2F5F3F4F0896AE
:10179000F2CFCB0123E0880F991F2A95E1F79F87AD
:1017A0008E8700E010E089859A8508171907FCF4F8
:1017B0001D86EF81F885E00FF11F8081232D2823FE
:1017C0002D8781818321082E000C990B0E8402C085
:1017D000880F991F0A94E2F7822B8D87BE01635F01
:1017E0007F4FCE01019605D90E5F1F4FDCCFBE01A2
:1017F0006F5F7F4FCE010796EFD9ADCFCE01019637
:10180000ADD904C0870102C00FEF1FEFE016F1064B
:1018100031F08EE090E0F301918380832CC08091C1
:101820005002909151028130910539F00297E1F414
:101830008F819885F601DC010EC08F819885D601D5
:101840001896FC019F01281B390B2E153F059CF4AF
:1018500021912E93F7CF9D01281B390B2E153F05A3
:1018600054F42D912193F7CF8FE090E0F301918311
:101870008083A12CB12CCE01079670D9C5012F967B
:101880000FB6F894DEBF0FBECDBFDF91CF911F9191
:101890000F91FF90EF90DF90CF90BF90AF909F900F
:1018A0008F907F906F905F904F903F900895CF936F
:1018B000DF93EC010E940E02EA89FB8980818F7E12
:1018C0008083EA89FB898081877F8083EA89FB891D
:1018D00080818F778083EA89FB8980818F7D8083F7
:1018E0008A8D898FDF91CF910895FC01A089B189FC
:1018F0008C91A689B78982FD0FC09C91818D8F5FE5
:101900008F73228D821749F0218DDF01A20FB11D47
:101910005D969C93818F08958C9108951F920F92EC
:101920000FB60F9211242F933F938F939F93AF93F2
:10193000BF938091550590915605A0915705B091A0
:1019400058053091540523E0230F2D3720F40196DC
:10195000A11DB11D05C026E8230F0296A11DB11DD2
:10196000209354058093550590935605A0935705F1
:10197000B09358058091500590915105A091520562
:10198000B09153050196A11DB11D80935005909310
:101990005105A0935205B0935305BF91AF919F910C
:1019A0008F913F912F910F900FBE0F901F90189520
:1019B000FC018091500290915102892B31F482E018
:1019C00090E090935102809350021186108610820D
:1019D0001182128213821482158216821782089550
:1019E000CF92DF92EF92FF920F931F93CF93DF93EB
:1019F0008C017B01FC0180819181009721F06AD7E5
:101A0000F80111821082F801E482F582E701F1EC1D
:101A1000EF16FCE0FF0638F42AE02E9DC0012F9D52
:101A2000900D112402C08FEF9FEFBCD66C017C019A
:101A3000219730F0C701BCDFEAE0EE0EF11CF8CFD1
:101A4000F801C082D182DF91CF911F910F91FF9059
:101A5000EF90DF90CF900895CF92DF92EF92FF92B8
:101A60000F931F93CF93DF93EC018B0168177907D6
:101A700009F44FC01B821A82FB0162817381161622
:101A800017060CF046C08C819D818617970714F4C9
:101A9000CE01A6DF80E090E020E030E0F801428156
:101AA0005381241735079CF5A081B181A80FB91F78
:101AB000E881F981E80FF91FAE17BF0721F1CC903B
:101AC0001196DC9011971296EC9012971396FC9059
:101AD000139714967C91149715966C9115971696FA
:101AE0005C91169717964C911797C082D182E2822B
:101AF000F382748365835683478318964D915C9176
:101B00001997518740872F5F3F4F0A96C7CF5B8356
:101B10004A83CE01DF91CF911F910F91FF90EF90FB
:101B2000DF90CF900895CF93DF9300D01F92CDB771
:101B3000DEB7789484B5826084BD84B5816084BD4D
:101B400085B5826085BD85B5816085BD80916E005B
:101B5000816080936E00109281008091810082608C
:101B600080938100809181008160809381008091C9
:101B700080008160809380008091B10084608093B8
:101B8000B1008091B00081608093B000809191009D
:101B90008260809391008091910081608093910098
:101BA000809190008160809390008091A10082607C
:101BB0008093A1008091A10081608093A100809119
:101BC000A00081608093A0008091210182608093B9
:101BD0002101809121018160809321018091200168
:101BE00081608093200180917A00846080937A00E4
:101BF00080917A00826080937A0080917A0081607F
:101C000080937A0080917A00806880937A001092A5
:101C1000C10040E855E260E070E08FE195E00E948D
:101C200017035FE8652E51E0752EF3012491E9E476
:101C3000F1E08491882399F090E0880F991FFC01CE
:101C4000E85FFE4FA591B491FC01EE5DFE4F8591DA
:101C500094919FB7F8948C91822B8C939FBF1BE03B
:101C60000AE024E0222E312C32E0432E512C109237
:101C70002B0510922A058091210590912205892B30
:101C800069F48FE195E00E945802892B39F0809128
:101C9000210590912205892B09F408C48091210522
:101CA00090912205019709F041C08FE195E00E94D3
:101CB0005802892BD9F161E070E08FE195E00E9434
:101CC0001F05E0913105F09132056181A0912F054A
:101CD000B091300512964D915C91139720E030E061
:101CE00080E090E08417950764F4ED91FC911197E2
:101CF000E20FF31F7681255F3F4F671721F00196B2
:101D0000F1CF8FEF9FEF909325058093240597FFE8
:101D100009C0109222051092210530922B052092C5
:101D20002A05AEC1509222054092210580912105DD
:101D300090912205029709F0B9C08FE195E00E94C9
:101D4000580203970CF4B2C061E070E08FE195E0B7
:101D50000E941F05E0913105F09132058281082E25
:101D6000000C990B019790932705809326054091CD
:101D700024055091250557FD16C0E0912F05F091DF
:101D8000300522813381421753076CF4149F900170
:101D9000159F300D11240190F081E02DE20FF31F0B
:101DA0002281338102C020E030E0281739073CF45B
:101DB000109222051092210585E090E056C061E066
:101DC00070E08FE195E00E941F05E0913105F091F0
:101DD00032058381082E000C990B9093290580937E
:101DE00028052091260530912705E0912F05F091D7
:101DF00030056091240570912505169FA001179F5D
:101E0000500D11240190F081E02DE40FF51F37FFF4
:101E100003C02185328520C04281538124173507B4
:101E2000CCF4029FA001039F500D11240190F0817A
:101E3000E02DE40FF51F20853185215031092A302E
:101E4000310540F4F901EA5FFD4F2081022E000CBC
:101E5000330B02C020E030E08217930759F0109254
:101E600022051092210589E090E090932B05809344
:101E70002A0506C161E070E08FE195E00E941F0530
:101E8000E0913105F09132058481809323058091A2
:101E9000280590912905019690932D0580932C0596
:101EA000A3E0B0E0B0932205A09321058091210525
:101EB00090912205039709F0E3C08FE195E00E941D
:101EC000580260912C0570912D05861797070CF428
:101ED000D7C08091330590913405680F791F8091A8
:101EE0003505909136058617970724F481E395E030
:101EF0000E94CB0460912C0570912D058FE195E037
:101F00000E941F05C0902F05D0903005E09131054B
:101F1000F0913205F180D60112966D917C91139764
:101F200080E090E020E030E02617370774F4D60117
:101F30004D915C91480F591FDA0116964C910B9602
:101F4000F41629F02F5F3F4FEFCF2FEF3FEF309385
:101F50002505209324054281042E000C550B415089
:101F6000510950932705409326058381082E000CC4
:101F7000990B90932905809328056481609323052C
:101F800037FF05C030922B0520922A0575C0129F9D
:101F9000B001139F700D1124D601ED90FC90E60E58
:101FA000F71ED70112962D913C91139724173507F0
:101FB0001CF485E090E024C06091330570913405F5
:101FC0009C012A5F3F4F621773073CF4E6E0F0E0A4
:101FD000F0932B05E0932A054FC00596DF0160E0E2
:101FE0009D012E1B3F0B281739071CF42D91620F02
:101FF000F7CFE80FF91F8081681739F087E090E08C
:1020000090932B0580932A0537C081E090E0909350
:102010002B0580932A0557FF20C0C12CD12CA12C61
:10202000B12C95E0892E912CD70112968D919C911F
:102030001397A816B90604F58D919C914AE255E0D4
:10204000B4018C0D9D1DFADA880E991EBFEFAB1AF4
:10205000BB0AEAE0CE0ED11CE7CF049FC001059F6A
:10206000900D1124D7012D913C914AE255E065E095
:1020700070E0820F931FE2DA109222051092210580
:1020800089E0E3E2F5E0A6E1B5E001900D928A95E2
:10209000E1F780911D0590911E05009709F403C298
:1020A000019709F090C182EF94E00E94D605882341
:1020B00099F082EF94E00E94BA02FC018081918144
:1020C000A281B38189839A83AB83BC83BE016F5F96
:1020D0007F4F8AEC94E07CC088EF94E00E94D605A4
:1020E000882399F088EF94E00E94BA02FC01808175
:1020F0009181A281B38189839A83AB83BC83BE0122
:102100006F5F7F4F80ED94E063C08EEF94E00E949C
:10211000D605882399F08EEF94E00E94BA02FC0164
:1021200080819181A281B38189839A83AB83BC83AF
:10213000BE016F5F7F4F86ED94E04AC084E095E07A
:102140000E94D605882399F084E095E00E94BA02A7
:10215000FC0180819181A281B38189839A83AB83C1
:10216000BC83BE016F5F7F4F8CED94E031C08AE08D
:1021700095E00E94D605882399F08AE095E00E94B8
:10218000BA02FC0180819181A281B38189839A8303
:10219000AB83BC83BE016F5F7F4F82EE94E018C0BB
:1021A00080E195E00E94D6058823A1F080E195E0CA
:1021B0000E94BA02FC0180819181A281B38189834E
:1021C0009A83AB83BC83BE016F5F7F4F88EE94E040
:1021D0000E94A6024091C6045091C70457FD63C1F6
:1021E000C0902F05D0903005D60112968D919C910C
:1021F0001397481759070CF056C12091C804309125
:10220000C904149FC001159F900D1124ED91FC91FC
:10221000E80FF91F37FF03C0E184F2841EC08281FA
:102220009381281739070CF03EC1029FC001039F1C
:10223000900D11240190F081E02DE80FF91F8085A9
:10224000918501978A30910508F02DC1FC01EA5F64
:10225000FD4FE0800E2C000CFF081E141F040CF034
:1022600022C1B7016A5F7F4F87E395E00E94AC040B
:10227000B1E4B983BE016F5F7F4F87E395E00E94B1
:10228000F9042091C6043091C704129FC001139F26
:10229000900D1124D601ED91FC91E80FF91F868174
:1022A0008983BE016F5F7F4F87E395E00E94F90449
:1022B0008091C8048F5F8983BE016F5F7F4F87E382
:1022C00095E00E94F904E982BE016F5F7F4F87E3CA
:1022D00095E00E94F904B6016A5F7F4F87E395E0BD
:1022E0000E94F9042091C6043091C704129FC001D6
:1022F000139F900D1124F601E080F180E80EF91E85
:10230000D70112968D919C911397181619060CF00F
:10231000CAC02091C8043091C904281739070CF0AD
:10232000C2C05A82498237FF1AC0C12CD12CA12CBD
:10233000B12CF70182819381A816B906FCF4808143
:102340009181BE016F5F7F4F8C0D9D1D0E941D0608
:10235000FFEFAF1ABF0A8AE0C80ED11CEACF029F76
:10236000C001039F900D1124D7012D913C91BE0116
:102370006F5F7F4F820F931F0E941D0689819A8194
:10238000029709F090C02091390530913A0580916B
:10239000370590913805FC0160E0AF01481B590BEF
:1023A000421753071CF44191640FF7CF6983BE01B4
:1023B0006F5F7F4F87E395E00E94F9048FE195E01E
:1023C0000E94C20270C0E5EDF1E04491F3019491E6
:1023D000E9E4F1E02491222309F465C0442309F4DF
:1023E00054C050E0FA013197E231F10508F04DC0D8
:1023F0008827EE58FF4F8F4FB9C1809180008F77AB
:1024000007C0809180008F7D03C080918000877F0E
:10241000809380003AC084B58F7702C084B58F7DE9
:1024200084BD33C08091B0008F7703C08091B0002D
:102430008F7D8093B00029C0809190008F7707C076
:10244000809190008F7D03C080919000877F809362
:1024500090001BC08091A0008F7707C08091A000E2
:102460008F7D03C08091A000877F8093A0000DC066
:10247000809120018F7707C0809120018F7D03C05C
:1024800080912001877F80932001E22FF0E0EE0F02
:10249000FF1FEE5DFE4FA591B4912FB7F8948C917C
:1024A000982B9C932FBF0E942F02E1CB10923405F2
:1024B0001092330561E070E08FE195E00E941F0506
:1024C000E0913105F09132058081813409F0D9CB5A
:1024D00081E090E09093220580932105D2CBCF93A9
:1024E000DF938FE195E00E94BE05C0913F05D0913A
:1024F00040052097E9F0FE013297208131814BE0C1
:10250000429FC001439F900D1124C80FD91F9E0107
:102510002B9780913F05909140058217930721F0FA
:10252000CE010E94B605F3CF0297DF91CF91D2C1C1
:10253000DF91CF910895CF93DF93E2E5F2E013822C
:10254000128248EE53E060E070E044835583668376
:1025500077838EE192E09183808325E331E03587B4
:10256000248724E331E03787268720E331E0318B6D
:10257000208B21E331E0338B228B22E331E0358B5A
:10258000248B26E331E0378B268B118E128E138E2F
:10259000148EEFEEF2E01382128244835583668339
:1025A00077839183808325ED30E03587248724ED80
:1025B00030E03787268720ED30E0318B208B21ED0E
:1025C00030E0338B228B22ED30E0358B248B26EDEF
:1025D00030E0378B268B118E128E138E148EECE822
:1025E000F3E0138212824483558366837783918359
:1025F00080832DEC30E0358724872CEC30E0378762
:10260000268728EC30E0318B208B29EC30E0338BAF
:10261000228B2AEC30E0358B248B2EEC30E0378B8C
:10262000268B118E128E138E148EE9E2F4E0138243
:10263000128244835583668377839183808385ECFC
:1026400090E09587848784EC90E09787868780EC7C
:1026500090E0918B808B81EC90E0938B828B82EC6D
:1026600090E0958B848B86EC90E0978B868B118E17
:10267000128E138E148ECFE3D5E0198218821B823E
:102680001A821D821C8286E495E092D982E08E83B4
:10269000EFE1F5E01382128214828FEF9FEF9683B1
:1026A0008583908787831286118614861386178602
:1026B000D18BC08B138A128A158A148A178A168ABC
:1026C000118E108E138E128E158E148E22E432E02F
:1026D00031832083E6E1F5E0108292838183948345
:1026E0008383168215821086178262E28EEE94E052
:1026F0000E943B0963E286EC94E0DF91CF910C9459
:102700003B0997FB072E16F4009406D077FD08D0FE
:1027100035D007FC05D03EF4909581959F4F0895E4
:10272000709561957F4F0895A1E21A2EAA1BBB1BDD
:10273000FD010DC0AA1FBB1FEE1FFF1FA217B3078D
:10274000E407F50720F0A21BB30BE40BF50B661FA3
:10275000771F881F991F1A9469F760957095809567
:1027600090959B01AC01BD01CF010895EE0FFF1FB5
:10277000881F8BBF0790F691E02D1994AA1BBB1BF5
:1027800051E107C0AA1FBB1FA617B70710F0A61B71
:10279000B70B881F991F5A95A9F780959095BC0192
:1027A000CD0108950F931F93CF93DF93823091054E
:1027B00010F482E090E0E0915B05F0915C0520E090
:1027C00030E0A0E0B0E0309719F140815181028102
:1027D000138148175907C8F08417950769F41097B3
:1027E00031F012960C93129713961C9327C0009306
:1027F0005B0510935C0522C02115310519F04217C5
:10280000530718F49A01BD01EF01DF01F801DBCF96
:1028100021153105F9F0281B390B2430310580F4DE
:102820008A819B816115710521F0FB01938382836D
:1028300004C090935C0580935B05FE01329644C012
:10284000FE01E20FF31F81939193225031093983E6
:1028500028833AC02091590530915A05232B41F421
:10286000209102023091030230935A0520935905BA
:1028700020910002309101022115310541F42DB75C
:102880003EB74091040250910502241B350BE091A4
:102890005905F0915A05E217F307A0F42E1B3F0BE0
:1028A0002817390778F0AC014E5F5F4F24173507C2
:1028B00048F04E0F5F1F50935A054093590581937E
:1028C000919302C0E0E0F0E0CF01DF91CF911F9142
:1028D0000F910895CF93DF93009709F481C0FC0115
:1028E000329713821282A0915B05B0915C0510971C
:1028F00081F420813181820F931F209159053091FD
:102900005A052817390751F5F0935A05E0935905F0
:1029100067C0ED0120E030E0CE17DF0740F44A81C8
:102920005B819E0141155105F1F0EA01F5CFD3839A
:10293000C28340815181840F951FC817D90759F46C
:1029400088819981840F951F0296918380838A8163
:102950009B81938382832115310529F4F0935C05D3
:10296000E0935B053DC0E901FB83EA8349915991FE
:10297000C40FD51FEC17FD0761F480819181840F8E
:10298000951F0296E90199838883828193819B83B5
:102990008A83E0E0F0E012968D919C911397009766
:1029A00019F0FD01DC01F7CF8D919C9111979D01EC
:1029B0002E5F3F4F820F931F2091590530915A058A
:1029C0002817390769F4309729F410925C051092A2
:1029D0005B0502C013821282B0935A05A093590579
:1029E000DF91CF91089581E090E0F89400C011E06C
:1029F000C8E0D1E000E005C0802FFE01B7DE2196DF
:102A0000011DC930D10780E00807B1F7F894FFCF66
:102A100000005D05800001010202040408080408AA
:102A20000101020204040808040400000000C201BD
:102A3000B8083F010E0270014E0162010000000063
:102A400000000000C002C002C002C002C0020000BC
:102A50000000BE05CD051703F2021F05C202580291
:00000001FF
