:100000001CC100004BC1000049C1000047C10000F5
:1000100045C1000043C1000041C100003FC10000D4
:100020003DC100003BC1000039C1000037C10000E4
:1000300035C1000033C1000031C100002FC10000F4
:100040002DC100002BC1000029C1000027C1000004
:1000500025C1000023C1000021C100000C94570EEF
:100060001DC100000C94A40D0C947B0D17C1000061
:1000700015C1000013C1000011C100000FC1000034
:100080000DC100000BC1000009C1000007C1000044
:100090000C94520D0C94290D01C10000FFC000000A
:1000A000FDC00000FBC00000F9C00000F7C0000068
:1000B000F5C00000F3C00000F1C00000EFC0000078
:1000C000EDC00000EBC00000E9C000000C94000D82
:1000D0000C94D70CE3C000000C94AE0C0C94850C6F
:1000E000DDC00000420463049004B704ED041C0565
:1000F0004B05A205F9053C06250750077A07A4071A
:10010000CE07FD072C085D088E08C108FC0DFF0D09
:10011000EE0DF20DF60D360E030E070E0D0E110E3E
:10012000150E1B0E1F0E230E360E290E2D0E310E30
:1001300000002200250028002B002E003100340092
:1001400002010000050108010B010000210024004C
:1001500027002A002D0030003300010100000401B7
:1001600007010A0105050505070508080808020238
:1001700002020A0A08080404040401010101010141
:1001800001010303030303030303040707070C0C24
:100190000C0C0C0C0C0C02020202060606060606EB
:1001A00006060B0B0B0B0B0B0B0B01021020200890
:1001B00008102040102040800201020108040201C2
:1001C0000102040810204080804020100804020131
:1001D000800402018040201008040201080402018A
:1001E0000102040810204080010204081020408011
:1001F00000000A0B02090C0D0E08070304010000A1
:1002000000000000000000000000000000000000EE
:1002100000000000000000000000000012111000AB
:1002200000000000000000000000000000000000CE
:10023000000000000000371BEF1A11241FBECFEF93
:10024000D1E2DEBFCDBF00E00CBF26E0A2E6B3E006
:1002500001C01D92A83EB207E1F713E0A0E0B2E0B2
:10026000EEECF1E400E00BBF02C007900D92A23665
:10027000B107D9F711E0CCE1D1E000E006C0219749
:100280000109802FFE010E94821ECB31D10780E040
:100290000807A9F70E94F7130C94D620B1CECF928D
:1002A000DF92EF92FF920F931F93CF93DF93CDB71F
:1002B000DEB727970FB6F894DEBF0FBECDBF7C0127
:1002C0001A8219821C821B821E821D82009729F1CC
:1002D000FC0100E010E08191882331F00F5F1F4F97
:1002E0000F3F1105C1F719C001151105B1F0C80183
:1002F00001969E838D830E94C11E9A838983A801E3
:10030000B701CE0101960E94E20E1F82BE01695F15
:100310007F4FCE0101960E941C0F80911506882305
:1003200009F46AC08B819C8102970CF461C0109221
:100330000606109205068FEF8F83BE01695F7F4F1F
:1003400083E096E00E941C0F83E08F83BE01695F0B
:100350007F4F83E096E00E941C0F0B811C811016DA
:10036000110634F4015011090F3F110534F402C095
:1003700000E010E00F5F1F4F02C00FEF10E00F838F
:10038000BE01695F7F4F83E096E00E941C0FA801C9
:100390004150510969817A8183E096E00E94E20E22
:1003A0001F82BE01695F7F4F83E096E00E941C0FB1
:1003B0001F82409105065091060620910306309158
:1003C0000406F901CF01821B930B841795072CF4C7
:1003D00081919F81890F8F83F5CFBE01695F7F4F28
:1003E00083E096E00E941C0F0E9420126C0104C062
:1003F0008EEFC82EDD24DA94CE0101960E94AF1054
:10040000C60127960FB6F894DEBF0FBECDBFDF91B1
:10041000CF911F910F91FF90EF90DF90CF900895B3
:10042000CF93DF93EB01BC018FE596E00E94420F72
:1004300097FD1BC04DE0489F9001499F300D11244E
:10044000E0918A06F0918B06E20FF31F838194817D
:10045000009759F0D7FD0BC0CC0FDD1F8581968129
:10046000C80FD91F8881998102C080E090E0DF9198
:10047000CF910895EF92FF920F931F93CF93DF9345
:10048000CDB7DEB76E970FB6F894DEBF0FBECDBF07
:100490008C017B01FB0180819181A28189839A83F8
:1004A000AB8360E070E0CE010196BADFF801918382
:1004B0008083F70180819181A2818C839D83AE83AB
:1004C00061E070E0CE010496ABDFF8019383828394
:1004D000F70180819181A2818F839887A98762E04B
:1004E00070E0CE0107969CDFF80195838483F701C5
:1004F00080819181A2818A879B87AC8763E070E0CD
:10050000CE010A968DDFF80197838683F7018081FB
:100510009181A2818D879E87AF8764E070E0CE01D4
:100520000D967EDFF80191878087F70180819181A8
:10053000A281888B998BAA8B65E070E0CE014096F2
:100540006FDFF80193878287F70180819181A28113
:100550008B8B9C8BAD8B66E070E0CE01439660DFA9
:10056000F80195878487F70180819181A2818E8B24
:100570009F8BA88F67E070E0CE01469651DFF801AF
:1005800097878687F70180819181A281898F9A8FD1
:10059000AB8F68E070E0CE01499642DFF801918BA5
:1005A000808BF70180819181A2818C8F9D8FAE8F8E
:1005B00069E070E0CE014C9633DFF801938B828BBB
:1005C0006E960FB6F894DEBF0FBECDBFDF91CF9110
:1005D0001F910F91FF90EF9008958091FB059091EE
:1005E000FC058130910571F02CF4892B89F482E4AB
:1005F00095E00DC08230910541F0039749F48BE6F8
:1006000093E005C085EA94E002C088E094E0FCC76E
:100610008FEF9FEF0895EF92FF920F931F93CF9369
:10062000DF931F92CDB7DEB720911506222309F480
:100630006EC08C014FEF5FEFBC018DEF95E00E9423
:10064000A10E8091FB059091FC058130910599F0F8
:1006500034F4892B09F05BC0E12CF12C1DC08230F1
:10066000910531F0039709F052C0E12CF12C3DC007
:10067000E12CF12C28C0E12CF12C13C082E495E090
:10068000A1D78983BE016F5F7F4F8DEF95E00E94F8
:100690001C0F8FEFE81AF80AE016F1067CF3C80188
:1006A00038C0E016F106DCF785EA94E08BD7898341
:1006B000BE016F5F7F4F8DEF95E00E941C0F8FEFA3
:1006C000E81AF80AEECFE016F1064CF788E094E05D
:1006D00079D78983BE016F5F7F4F8DEF95E00E94D0
:1006E0001C0F8FEFE81AF80AEECFE016F106BCF601
:1006F0008BE693E067D78983BE016F5F7F4F8DEFF5
:1007000095E00E941C0F8FEFE81AF80AEECF8FEFEA
:100710009FEF0F90DF91CF911F910F91FF90EF907E
:10072000089540910B0650910C0620910D063091D2
:100730000E06421753076CF5E0910F06F091100674
:10074000EE0FFF1F2091090630910A06E20FF31FFA
:100750009183808380910F0690911006019690936B
:10076000100680930F0620910D0630910E06821719
:10077000930724F01092100610920F0680910B063A
:1007800090910C06019690930C0680930B0680E0E6
:1007900008952091130630911406232B11F5E09152
:1007A0000F06F0911006EE0FFF1F20910906309101
:1007B0000A06E20FF31F9183808380910F069091C8
:1007C000100601969093100680930F0620910D0657
:1007D00030910E068217930724F0109210061092A3
:1007E0000F0681E008952F923F924F925F926F9291
:1007F0007F928F929F92AF92BF92CF92DF92EF92B1
:10080000FF920F931F93CF93DF93CDB7DEB7299756
:100810000FB6F894DEBF0FBECDBF1C013A01DC015C
:100820001B96ED91FC911C97CA01880F991F880FA8
:10083000991F0480F581E02DE80FF91F0280F381F4
:10084000E02D3297EA30F10578F4DF01A05FBD4F6B
:100850002C91022E000C330BDF01AA5FBD4FAC912F
:100860000A2E000CBB0B04C02AEF3FEFA9EFBFEF2D
:10087000EA30F10508F071C28827EE58FF4F8F4F1C
:100880000C94821EE091FD05F091FE05E60FF71F26
:1008900020E030E0F12CBF014FEF5FEFCF01861B6E
:1008A000970B8A179B0774F58191082E000C990B02
:1008B00084239523022E01C0880F0A94EAF7F82AB0
:1008C000285F3F4FEBCFE091FD05F091FE05E60F6D
:1008D000F71F20E030E0F12CBF014FEF50E0CF01D7
:1008E000861B970B8A179B076CF4819190E08423F9
:1008F0009523022E01C0880F0A94EAF7F82A285F90
:100900003F4FEDCFC301880F991FF101258136813B
:10091000F901E80FF91F0190F081E02DF08222C269
:10092000E091FD05F091FE05E60FF71F40E050E075
:1009300020E030E0FF83EE836FEF70E0CF010E81A7
:100940001F81801B910B8A179B07C4F58191082E8C
:10095000000C990B86239723042E02C0880F991F41
:100960000A94E2F7282B392B485F5F4FE7CFE091DD
:10097000FD05F091FE05E60FF71F40E050E020E096
:1009800030E0FF83EE836FEF70E0CF010E811F81B7
:10099000801B910B8A179B078CF48191082E000C09
:1009A000990B86239723042E02C0880F991F0A945F
:1009B000E2F7282B392B485F5F4FE7CFC301880F41
:1009C000991FF10145815681FA01E80FF91F019045
:1009D000F081E02D31832083C5C1E091FD05F091C8
:1009E000FE05E60FF71F80E090E0C12CD12C7601C8
:1009F0009F01812C912C54018A94AF01421B530B0F
:100A00004A175B070CF027C14191042E000C550BCF
:100A1000660B770B482159216A217B21082E04C0DF
:100A2000440F551F661F771F0A94D2F7C42AD52A90
:100A3000E62AF72A0896E1CFE091FD05F091FE0540
:100A4000E60FF71F80E090E0C12CD12C76019F01CA
:100A5000812C912C54018A94AF01421B530B4A17ED
:100A60005B070CF0F8C04191042E000C550B660B8F
:100A7000770B482159216A217B21082E04C0440F9D
:100A8000551F661F771F0A94D2F7C42AD52AE62A73
:100A9000F72A0896E1CFE091FD05F091FE05E60FFB
:100AA000F71F812C912CB12CC12CD12CE12CF12CD5
:100AB00010E019861886FF83EE83CF012E813F81D7
:100AC000821B930B8A179B070CF030C12191922F48
:100AD000990F990B392F492F592F692F792F892F6A
:100AE000082D0E948A1E2983432E542E5A836B831D
:100AF0007C838D83A92E2FEF30E040E050E060E052
:100B000070E080E090E00E948A1E09812023342159
:100B100045210A8150230B8160230C8170230D81B4
:100B200080239A21B22AC32AD42AE52AF62A172B2F
:100B30002985282B29873885392B388788E0880E26
:100B4000911CBBCFE091FD05F091FE05E60FF71F6C
:100B5000812C912CB12CC12CD12CE12CF12C10E04A
:100B600019861886FF83EE83CF012E813F81821B79
:100B7000930B8A179B070CF0D9C02191922F990FE4
:100B8000990B392F492F592F692F792F892F082D2C
:100B90000E948A1E2983432E542E5A836B837C83A2
:100BA0008D83A92E2FEF30E040E050E060E070E050
:100BB00080E090E00E948A1E098120233421452193
:100BC0000A8150230B8160230C8170230D818023C7
:100BD0009A21B22AC32AD42AE52AF62A172B298574
:100BE000282B29873885392B388788E0880E911C77
:100BF000BBCF2430310509F0B3C0E091FD05F09181
:100C0000FE05E60FF71F80E090E0C12CD12C7601A5
:100C10009F01812C912C54018A94AF01421B530BEC
:100C20004A175B07C4F44191042E000C550B660B68
:100C3000770B482159216A217B21082E04C0440FDB
:100C4000551F661F771F0A94D2F7C42AD52AE62AB1
:100C5000F72A0896E2CFC301880F991FF101258179
:100C60003681F901E80FF91F0190F081E02DC08273
:100C7000D182E282F38276C02830310509F070C05B
:100C8000E091FD05F091FE05E60FF71F812C912CF8
:100C9000B12CC12CD12CE12CF12C10E01986188636
:100CA000FF83EE83CF012E813F81821B930B8A1736
:100CB0009B07E4F52191922F990F990B392F492F1A
:100CC000592F692F792F892F082D0E948A1E298379
:100CD000432E542E5A836B837C838D83A92E2FEF52
:100CE00030E040E050E060E070E080E090E00E94A2
:100CF0008A1E09812023342145210A8150230B813A
:100D000060230C8170230D8180239A21B22AC32A8B
:100D1000D42AE52AF62A172B2985282B29873885F6
:100D2000392B388788E0880E911CBCCFC301880F0F
:100D3000991FF10125813681F901E80FF91F019012
:100D4000F081E02DB082C182D282E382F4821583E9
:100D5000198516831885178305C0A0EFBFEF02C061
:100D6000AAEEBFEFCD0129960FB6F894DEBF0FBEF5
:100D7000CDBFDF91CF911F910F91FF90EF90DF904A
:100D8000CF90BF90AF909F908F907F906F905F902B
:100D90004F903F902F9008956115710551F0FB0120
:100DA00001900020E9F73197AF01461B570B0C94D7
:100DB000E81180E008953F924F925F926F927F9288
:100DC0008F929F92AF92BF92CF92DF92EF92FF925B
:100DD0000F931F93CF93DF931F92CDB7DEB7DC0144
:100DE0001B96ED91FC911C979B01220F331F220F44
:100DF000331F0480F581E02DE20FF31F0280F381A1
:100E0000E02D3297EA30F10578F4DF01A05FBD4FA5
:100E10002C91022E000C330BDF01AA5FBD4FEC902A
:100E20000E2C000CFF0806C02AEF3FEF49EFE42E1E
:100E3000FF24FA94EA30F10508F0D6C1DC018827D6
:100E4000E458FF4F8F4F0C94821E660F771F159644
:100E5000ED91FC911697E60FF71F0190F081E02DC0
:100E6000A08000E010E0C12CD12C0A2C000CBB08A3
:100E7000CE14DF040CF0C1C1C501002E02C095954F
:100E800087950A94E2F78983BE016F5F7F4F83E005
:100E900096E0D2D7BFEFCB1ADB0A085F1F4FE8CF2F
:100EA000660F771F1596ED91FC911697E60FF71FC9
:100EB0000190F081E02D0081C12CD12CA12CB12C0E
:100EC00010E0AE14BF040CF098C1C8010C2C02C095
:100ED000959587950A94E2F78983BE016F5F7F4FEE
:100EE00083E096E0A9D78FEFA81AB80AA8E0CA0E47
:100EF000D11CE7CF660F771F1596ED91FC911697E1
:100F0000E60FF71F0190F081E02D00811181C12CC7
:100F1000D12CA12CB12CAE14BF040CF06EC1C801B1
:100F20000C2C02C0959587950A94E2F78983BE013F
:100F30006F5F7F4F83E096E07FD7BFEFAB1ABB0AAE
:100F400088E0C80ED11CE7CF660F771F1596ED918C
:100F5000FC911697E60FF71F0190F081E02D0081BC
:100F60001181C12CD12CA12CB12CAE14BF040CF0DA
:100F700044C1C8010C2C02C0969587950A94E2F7EB
:100F80008983BE016F5F7F4F83E096E055D7AFEF57
:100F9000AA1ABA0AB8E0CB0ED11CE7CF660F771FAA
:100FA0001596ED91FC911697E60FF71F0190F081D1
:100FB000E02D4080518062807380C12CD12CA12C07
:100FC000B12CAE14BF040CF018C1D301C2010C2C1B
:100FD00004C0B595A795979587950A94D2F789830C
:100FE000BE016F5F7F4F83E096E026D78FEFA81A90
:100FF000B80AA8E0CA0ED11CE4CF660F771F159679
:10100000ED91FC911697E60FF71F0190F081E02D0E
:101010004080518062807380C12CD12CA12CB12CD6
:10102000AE14BF040CF0E9C0D301C2010C2C04C003
:10103000B695A795979587950A94D2F78983BE01AF
:101040006F5F7F4F83E096E0F7D6BFEFAB1ABB0A26
:1010500088E0C80ED11CE4CF660F771F1596ED917E
:10106000FC911697E60FF71F0190F081E02D40806C
:101070005180628073808480958016813780C12C76
:10108000D12CA12CB12CAE14BF040CF0B6C092012F
:10109000A301B401812F932D0C2D0E94A31E29833F
:1010A000BE016F5F7F4F83E096E0C6D6AFEFAA1A0E
:1010B000BA0AB8E0CB0ED11CE6CF660F771F1596A3
:1010C000ED91FC911697E60FF71F0190F081E02D4E
:1010D0004080518062807380848095801681378043
:1010E000C12CD12CA12CB12CAE14BF040CF085C0A6
:1010F0009201A301B401812F932D0C2D0E94A51EF6
:101100002983BE016F5F7F4F83E096E095D68FEF16
:10111000A81AB80AA8E0CA0ED11CE6CF24303105BF
:1011200009F067C0660F771F1596ED91FC91169731
:10113000E60FF71F0190F081E02D40805180628022
:101140007380C12CD12CA12CB12CAE14BF040CF097
:1011500054C0D301C2010C2C04C0B595A795979536
:1011600087950A94D2F78983BE016F5F7F4F83E032
:1011700096E062D6BFEFAB1ABB0A88E0C80ED11C5E
:10118000E4CF28303105A9F5660F771F1596ED914C
:10119000FC911697E60FF71F0190F081E02D40803B
:1011A0005180628073808480958016813780C12C45
:1011B000D12CA12CB12CAE14BF04FCF49201A301DC
:1011C000B401812F932D0C2D0E94A31E2983BE01F3
:1011D0006F5F7F4F83E096E02FD6AFEFAA1ABA0A6F
:1011E000B8E0CB0ED11CE7CF96EFE92EFF24FA949E
:1011F00004C08AEEE82EFF24FA94C7010F90DF9115
:10120000CF911F910F91FF90EF90DF90CF90BF9003
:10121000AF909F908F907F906F905F904F903F9096
:101220000895AF92BF92CF92DF92EF92FF920F9309
:101230001F93CF93DF93CDB7DEB760970FB6F894C7
:10124000DEBF0FBECDBFFA0122853385121613060D
:1012500024F060E070E080E019C17A01162F082FB9
:10126000D0907306DE868F87688BBE01625F7F4FEA
:101270008FE596E007D697FD04C06D2D702F812F66
:1012800005C119821A821B821F821E821986188646
:101290001B861A861D821C821D861C8600918C0668
:1012A00010918D0680918E0690918F060817190770
:1012B0000CF4ADC06801FFEFCF1ADF0A8C159D0555
:1012C0000CF0A5C0D0928F06C0928E06A0908A0620
:1012D000B0908B06A114B10409F467C021ECC216CA
:1012E00029E0D20640F42DE02C9DC0012D9D900DEB
:1012F0001124029602C08FEF9FEF0E94C11EDC01F5
:10130000CD92DD92FC01015011090E3F8FEF1807BD
:1013100079F0128213821482108617821286118647
:101320001486138616821582168615863D96EBCF97
:10133000B0938B06A0938A068501C12CD12C809195
:101340008C0690918D06C816D906BCF420918A06A9
:1013500030918B06C8018A199B09820F931FF801EF
:10136000638574856115710511F0A8010ED6FFEF34
:10137000CF1ADF0A035F1F4FE2CFF50192918291EE
:101380006F012DE0289F8001299F100D11240A0D67
:101390001B1DA016B10629F00D501109C801E7D692
:1013A000F8CFC6010E94591F32C010928D061092CC
:1013B0008C06F1ECCF16F9E0DF0640F42DE02C9D11
:1013C000C0012D9D900D1124029602C08FEF9FEF5A
:1013D0000E94C11EDC01CD92DD92FC010150110979
:1013E0000E3F2FEF120779F01282138214821086BB
:1013F0001782128611861486138616821582168627
:1014000015863D96EBCFB0938B06A0938A0620916C
:101410008C0630918D064DE0429FC001439F900D98
:10142000112420918A0630918B06820F931F6C85C0
:101430007D856115710521F0AE014F5F5F4FA5D528
:1014400080918C0690918D06019690938D068093E5
:101450008C06CE0101968BD620918C0630918D069C
:10146000215031094DE0429FC001439F900D11244E
:1014700020918A0630918B06AE01425F5F4FB70123
:10148000820F931F82D56E857F85888960960FB6FF
:10149000F894DEBF0FBECDBFDF91CF911F910F91AA
:1014A000FF90EF90DF90CF90BF90AF9008958F9214
:1014B0009F92AF92BF92EF92FF920F931F93CF93A1
:1014C000DF93CDB7DEB76E970FB6F894DEBF0FBED1
:1014D000CDBF7C018B0149015A01CE0101965DD639
:1014E000D8011396FE01319680E090E0BC016D5F5B
:1014F0007F4F2D91222319F083319105A9F4E1E06A
:10150000F0E0EC0FFD1FE80FF91F1082F801E60F65
:10151000F71F81818D8BFB013296E00FF11FDE01F9
:101520005696CE014A9603C021930196DFCF2191B2
:101530002D938A179B07D9F76A5F7F4F8A8E9B8E00
:10154000AC8EBD8EF80180E09191890F9F01201B28
:10155000310B26173707C4F3F801E60FF71F908108
:10156000891309C08EE1FE013196D70101900D92D9
:101570008A95E1F702C0C70110D6C7016E960FB673
:10158000F894DEBF0FBECDBFDF91CF911F910F91B9
:10159000FF90EF90BF90AF909F908F900895089527
:1015A00080E090E00895FC01538D448D252F30E0BC
:1015B000842F90E0821B930B541710F0CF96089560
:1015C00001970895FC01918D828D981761F0828DAD
:1015D000DF01A80FB11D5D968C91928D9F5F9F7367
:1015E000928F90E008958FEF9FEF0895FC01918D09
:1015F000828D981731F0828DE80FF11D858D90E076
:1016000008958FEF9FEF0895FC01918D228D892F12
:1016100090E0805C9F4F821B91098F7399270895FA
:101620008BE693E0F1DF21E0892B09F420E0822FA3
:10163000089588E094E0E8DF21E0892B09F420E0B8
:10164000822F089585EA94E0DFDF21E0892B09F4F9
:1016500020E0822F089582E495E0D6DF21E0892BF7
:1016600009F420E0822F0895FC01848DDF01A80F8A
:10167000B11DA35ABF4F2C91848D90E001968F73BA
:101680009927848FA689B7892C93A089B1898C91D9
:10169000837080648C93938D848D981306C0028828
:1016A000F389E02D80818F7D80830895EF92FF92F2
:1016B0000F931F93CF93DF93EC0181E0888F9B8D75
:1016C0008C8D981305C0E889F989808185FD25C036
:1016D000F62E0B8D10E00F5F1F4F0F731127E02EBA
:1016E0008C8DE8120BC00FB607FCFACFE889F98998
:1016F000808185FFF5CFCE01B7DFF2CF8B8DFE0164
:10170000E80FF11DE35AFF4FF0829FB7F8940B8F5B
:10171000EA89FB89808180620AC09FB7F894EE89CC
:10172000FF896083E889F989808183708064808380
:101730009FBF81E090E0DF91CF911F910F91FF90CB
:10174000EF900895CF93DF93EC01888D8823C1F04B
:10175000EA89FB89808185FD05C0A889B9898C91BA
:1017600086FD0EC00FB607FCF5CF808185FFF2CF56
:10177000A889B9898C9185FFEDCFCE0175DFE8CFBF
:10178000DF91CF91089580E090E0892B19F063DF1D
:10179000811116C080E090E0892B19F053DF811190
:1017A00012C080E090E0892B19F043DF81110EC058
:1017B00080E090E0892B79F033DF81110AC0089531
:1017C0000E940000E7CF0E940000EBCF0E940000C3
:1017D000EFCF0C9400000895CF92DF92EF92FF922A
:1017E0000F931F93CF93DF93EC018B01CA80DB80B3
:1017F0002C813D81C216D3060CF43FC0C601019670
:1018000028173907D4F59D838C83E880F980E1148B
:10181000F10421F181382FE3920718F4880F991F02
:1018200002C08FEF9FEF0E94C11E99838883D7016A
:1018300080E090E08C159D056CF44D915D919C01CC
:10184000220F331FE881F981E20FF31F5183408398
:101850000196F0CFC7010E94591F0FC01B821A8248
:101860008138EFE39E0718F4880F991F02C08FEFAD
:101870009FEF0E94C11E998388838A819B81F80112
:10188000408151819C01220F331FE881F981E20FD1
:10189000F31F5183408301969B838A83DF91CF910D
:1018A0001F910F91FF90EF90DF90CF9008950F93CD
:1018B0001F93CF93DF938C01EB01FC018081918119
:1018C000009711F00E94591FF80113821282D583EC
:1018D000C483C138FFE3DF0720F4CE01880F991FCE
:1018E00002C08FEF9FEF0E94C11EF8019183808399
:1018F000DF91CF911F910F910895FC01808191811B
:10190000009711F00C94591F08951F920F920FB673
:101910000F9211240BB60F922F933F934F935F9327
:101920006F937F938F939F93AF93BF93EF93FF93A7
:101930008BE693E099DEFF91EF91BF91AF919F917C
:101940008F917F916F915F914F913F912F910F9068
:101950000BBE0F900FBE0F901F9018951F920F9205
:101960000FB60F9211240BB60F922F933F934F9304
:101970005F936F937F938F939F93AF93BF93EF93F7
:10198000FF938BE693E0B5D6FF91EF91BF91AF91B6
:101990009F918F917F916F915F914F913F912F9187
:1019A0000F900BBE0F900FBE0F901F9018951F92B7
:1019B0000F920FB60F9211240BB60F922F933F93F5
:1019C0004F935F936F937F938F939F93AF93BF9347
:1019D000EF93FF9388E094E047DEFF91EF91BF9192
:1019E000AF919F918F917F916F915F914F913F91B7
:1019F0002F910F900BBE0F900FBE0F901F90189558
:101A00001F920F920FB60F9211240BB60F922F93C5
:101A10003F934F935F936F937F938F939F93AF9376
:101A2000BF93EF93FF9388E094E063D6FF91EF912B
:101A3000BF91AF919F918F917F916F915F914F91E6
:101A40003F912F910F900BBE0F900FBE0F901F90E4
:101A500018951F920F920FB60F9211240BB60F928A
:101A60002F933F934F935F936F937F938F939F93A6
:101A7000AF93BF93EF93FF9385EA94E0F5DDFF9179
:101A8000EF91BF91AF919F918F917F916F915F91F6
:101A90004F913F912F910F900BBE0F900FBE0F9063
:101AA0001F9018951F920F920FB60F9211240BB62C
:101AB0000F922F933F934F935F936F937F938F93E7
:101AC0009F93AF93BF93EF93FF9385EA94E011D672
:101AD000FF91EF91BF91AF919F918F917F916F9106
:101AE0005F914F913F912F910F900BBE0F900FBEC2
:101AF0000F901F9018951F920F920FB60F921124FE
:101B00000BB60F922F933F934F935F936F937F93F7
:101B10008F939F93AF93BF93EF93FF9382E495E0EE
:101B2000A3DDFF91EF91BF91AF919F918F917F9135
:101B30006F915F914F913F912F910F900BBE0F903E
:101B40000FBE0F901F9018951F920F920FB60F9215
:101B500011240BB60F922F933F934F935F936F9384
:101B60007F938F939F93AF93BF93EF93FF9382E401
:101B700095E0BFD5FF91EF91BF91AF919F918F916C
:101B80007F916F915F914F913F912F910F900BBE7D
:101B90000F900FBE0F901F901895362F90E0FC010C
:101BA000E051FE4F4491FC01E655FE4F2491FC01AB
:101BB000EC59FE4F9491992309F46CC0442309F425
:101BC00055C050E0FA013197E231F10508F04EC0FE
:101BD0008827EA57FF4F8F4F0C94821E8091800018
:101BE0008F7707C0809180008F7D03C08091800037
:101BF000877F809380003AC084B58F7702C084B518
:101C00008F7D84BD33C08091B0008F7703C08091F9
:101C1000B0008F7D8093B00029C0809190008F77B5
:101C200007C0809190008F7D03C080919000877FD6
:101C3000809390001BC08091A0008F7707C0809197
:101C4000A0008F7D03C08091A000877F8093A000BB
:101C50000DC0809120018F7707C0809120018F7D7A
:101C600003C080912001877F80932001E92FF0E05D
:101C7000EE0FFF1FE05DFE4FA591B4919FB7F89462
:101C8000311104C08C912095282302C0EC912E2B99
:101C90002C939FBF08952FB7F894609167037091BC
:101CA00068038091690390916A032FBF08951F9282
:101CB0000F920FB60F9211242F933F938F939F9300
:101CC000AF93BF938091670390916803A0916903DC
:101CD000B0916A033091660323E0230F2D3720F47F
:101CE0000196A11DB11D05C026E8230F0296A11D76
:101CF000B11D209366038093670390936803A093BC
:101D00006903B0936A038091620390916303A09189
:101D10006403B09165030196A11DB11D8093620318
:101D200090936303A0936403B0936503BF91AF9155
:101D30009F918F913F912F910F900FBE0F901F9009
:101D40001895EF92FF920F931F93CF93DF93EC01BF
:101D50008C819D81861797076CF58A01CB017D8365
:101D60006C83E880F980E114F104E1F00E94C11E67
:101D70009983888317FD02C01B830A83D70180E003
:101D800090E02A813B818217930744F42D91E881EA
:101D9000F981E80FF91F20830196F3CFC7010E9454
:101DA000591F06C01B821A820E94C11E9983888314
:101DB00081E001C080E0DF91CF911F910F91FF90F2
:101DC000EF900895CF92DF92EF92FF920F931F93BF
:101DD000CF93DF93EC018B017A01CA80DB80B601DF
:101DE000640F751F8C819D818617970724F44FEF30
:101DF0005FEFCE01A6DFF801C01AD10ACF01801B28
:101E0000910B8E159F057CF4C6018E0F9F1FA88134
:101E1000B981A80FB91F81918C938A819B8101960A
:101E20009B838A83EBCFDF91CF911F910F91FF901E
:101E3000EF90DF90CF9008950F931F93CF93DF9390
:101E4000EC018B016A817B818C819D816817790708
:101E500034F06F5F7F4F4FEF5FEFCE0172DFF8011D
:101E60002081E881F9818A819B81E80FF91F208315
:101E70008A819B8101969B838A83DF91CF911F91F9
:101E80000F9108950F931F93CF93DF93DC019D96DD
:101E90000D911C919E9740E050E020E030E020172B
:101EA00031079CF4EC01EBA5FCA5E40FF51FD181F3
:101EB000DB011196CC911197DC130AC0F2811296C6
:101EC000EC91FE1305C0C90108C08FEE9FEF05C05D
:101ED0002F5F3F4F435F5F4FE2CFDF91CF911F9165
:101EE0000F910895DC011B96ED91FC911C9777FFF3
:101EF00003C0848595850895660F771F660F771F49
:101F00000480F581E02DE60FF71F8281938102970F
:101F10008A30910540F4FC01EA5FFD4F8081082E74
:101F2000000C990B089589EF9FEF08950F931F936D
:101F3000CF93DF93FB0120812F3F51F4218121308A
:101F400038F02330D8F0233019F4828190E018C0A3
:101F50008A01BF01EC0196DF97FD12C04DE0489F5A
:101F60009001499F300D11248BA59CA5B801820FCB
:101F7000931FDF91CF911F910F91B4CF8FEF9FEF00
:101F8000DF91CF911F910F9108958F929F92AF9201
:101F9000BF92CF92DF92EF92FF920F931F93CF9356
:101FA000DF931F921F92CDB7DEB7DC011C967C93A6
:101FB0006E931B97672B09F4C3C0FA018C01208133
:101FC00091818281FD012083918382838381948129
:101FD000009711F00E94591FD8011B96ED90FC90BC
:101FE0001C97F701868597850E94C11ED80114961B
:101FF0009C938E931397F701828193818130910591
:1020000009F444C00297D1F45801F5E0AF0EB11CB9
:10201000D7011A966D917C911B97C50148DCF80198
:10202000C380D480E12CF12CD8011B96ED91FC915A
:102030001C9782859385E816F9061CF080E090E0F5
:102040006CC0DA82C982BE016F5F7F4FC501C4DBFD
:10205000D8011B96ED91FC911C970480F581E02D31
:102060008281938102978A30910540F4FC01E05F00
:10207000FD4F8081082E000C990B02C08AEF9FEF64
:10208000C80ED91EBFEFEB1AFB0ACECF4801E5E020
:102090008E0E911CD7011A966D917C911B97C401ED
:1020A00006DCF801A380B480E12CF12CC12CD12CEA
:1020B000D8011B96ED91FC911C9782859385C816DB
:1020C000D9060CF0BBCFBA82A982BE016F5F7F4FE9
:1020D000C40182DBD8011B96ED91FC911C97048012
:1020E000F581E02DEE0DFF1D8281938102978A30EC
:1020F000910540F4FC01E05FFD4F8081082E000C4B
:10210000990B02C08AEF9FEFA80EB91EBFEFCB1A42
:10211000DB0AE4E0EE0EF11CCBCFD8011B96ED916B
:10212000FC911C9726853785821793074CF41396EC
:10213000ED91FC911497E80FF91F10820196EDCFF5
:102140000F900F90DF91CF911F910F91FF90EF9023
:10215000DF90CF90BF90AF909F908F900895FC013B
:1021600080819181009711F00C94591F0895CF93AD
:10217000DF93EC018B819C81009721F00E94591F15
:102180001C821B828D819E81009721F0DF91CF916F
:102190000C94591FDF91CF910895FC01118E128E7E
:1021A000138E148E1082148A158A168A178A108E3E
:1021B000158E08958F929F92AF92BF92CF92DF9229
:1021C000EF92FF920F931F93CF93DF934C01FB018C
:1021D00081E0858FD40197960D911C91989780E0AE
:1021E00090E020E030E0201731071CF5E401ADA1BC
:1021F000BEA1A80FB91FAD015F016D01D4E1CD0EE5
:10220000D11CEA01F990AE01E501E9905E01FE10F2
:102210000CC0F11007C08EE101900D928A95E1F794
:10222000C90192C04C155D0561F72F5F3F4F4E9677
:10223000DACF7F01E40189A59AA5081719070CF4E4
:102240006BC098012F5F3F4F821793070CF064C05B
:102250003AA729A7ADA0BEA0A114B104E1F1213491
:1022600064E0360738F44EE1429FC001439F900D71
:10227000112402C08FEF9FEF0E94C11E4C016C0120
:102280000F3F8FEF180741F0C60187DFAEE1CA0E9E
:10229000D11C01501109F4CF8DA29EA2C50120E0EE
:1022A00030E04FA158A5241735078CF4AC014A192A
:1022B0005B09ADA1BEA1A40FB51F4EE1FC010190C9
:1022C0000D924A95E1F72F5F3F4F4E96EACFC50139
:1022D0000E94591F21C018A61FA22134B4E03B0759
:1022E00038F44EE1429FC001439F900D112402C07B
:1022F0008FEF9FEF0E94C11E5C016C010F3F6FEFDB
:10230000160741F0C60149DF8EE1C80ED11C01500D
:102310001109F4CFADA2BEA24FA158A58EE1849FB2
:102320009001859F300D1124ADA1BEA1A20FB31F56
:10233000F70101900D928A95E1F78FA198A59C0174
:102340002F5F3F4F38A72FA3DF91CF911F910F91A0
:10235000FF90EF90DF90CF90BF90AF909F908F90C5
:102360000895EF92FF920F931F93CF93DF93CDB712
:10237000DEB762970FB6F894DEBF0FBECDBF8C01FB
:10238000CB01F8011182108213821282158214820D
:102390004AE09E012F5F3F4F7901B9010E944F1E15
:1023A000F70101900020E9F73197AF014E195F095D
:1023B000B701C801DED162960FB6F894DEBF0FBE3A
:1023C000CDBFDF91CF911F910F91FF90EF900895B6
:1023D000EF92FF920F931F93CF93DF9361157105D7
:1023E00011F480E01BC041155105B9F07B01EC01EF
:1023F0008C819D818A01080F191FB801CE0192D1ED
:10240000882379F3288139818C819D81B701820FDE
:10241000931F0E94CF201D830C8381E0DF91CF9119
:102420001F910F91FF90EF900895FB01448155811A
:1024300060817181CDCFFC01808191810C94591F05
:10244000809115068823D9F18091FB059091FC05B8
:1024500081309105F1F06CF4892B89F540910506E6
:1024600050910606609103067091040682E495E09F
:1024700025C082309105C1F0039709F5409105060A
:102480005091060660910306709104068BE693E076
:1024900015C04091050650910606609103067091A3
:1024A000040685EA94E00AC04091050650910606AC
:1024B000609103067091040688E094E003C08FEFFA
:1024C0009FEF0895CF92DF92EF92FF920F931F93A9
:1024D000CF93DF936C017A018B01C0E0D0E0CE1581
:1024E000DF0581F0D8016D918D01D601ED91FC9150
:1024F0000190F081E02DC6011995892B11F02196EC
:10250000EECF7E01C701DF91CF911F910F91FF9018
:10251000EF90DF90CF9008950E94C220AF92BF92BB
:10252000CF92DF92EF92FF920F931F93CF93DF939F
:10253000EC017983688381E090E09B838A831D822C
:102540001C821F821E82198618861D861C861F8685
:102550001E868A01E12CF12CD80112968D919C9156
:102560001397892B19F4FB86EA86B8C0CE80DF80EA
:1025700028853985C216D3060CF45FC0C6010196C2
:10258000281739070CF059C099878887AC80BD801F
:10259000A114B10491F1813CBFE19B0728F4880F9D
:1025A000991F880F991F02C08FEF9FEF0E94C11ED5
:1025B0009601FC01215031092E3F4FEF340731F0D5
:1025C00011821082138212823496F4CF8C839D8301
:1025D000D501FC0180E090E08C159D0554F44D91EF
:1025E0005D916D917D9141935193619371930196AA
:1025F000F3CFC5010E94591F20C01F821E82813C5B
:10260000AFE19A0728F4880F991F880F991F02C01D
:102610008FEF9FEF0E94C11EFC01B1E0CB1AD108E1
:102620002EEFC2162FEFD20631F0118210821382E4
:1026300012823496F2CF8C839D838E819F819C0180
:10264000220F331F220F331FEC81FD81E20FF31F96
:10265000D8014D915D916D917D918D0140835183A4
:102660006283738301969F838E83FD0132978081FD
:10267000918102978A30910540F4FC01EA5FFD4F99
:102680002081022E000C330B02C029EF3FEF4C8556
:102690005D85240F351F3D872C878A30910540F4D6
:1026A000FC01E05FFD4F8081082E000C990B02C0F9
:1026B0008AEF9FEF2E853F85820F931F9F878E871E
:1026C000BFEFEB1AFB0AE114E1E0FE0609F044CF8C
:1026D0001D861C861F861E861B861A86DF91CF915B
:1026E0001F910F91FF90EF90DF90CF90BF90AF9030
:1026F0000895FC01A089B1898C91A689B78982FDD2
:102700000FC09C91818D8F5F8F73228D821749F04E
:10271000218DDF01A20FB11D5D969C93818F0895DD
:102720008C9108950F931F93CF93DF93EC018881D1
:102730009981009729F02A813B812617370788F471
:102740008B016F5F7F4F0E94E21F009761F09983BA
:1027500088831B830A832C813D81232B11F4FC0188
:10276000108281E001C080E0DF91CF911F910F9135
:102770000895EF92FF920F931F93CF93DF93EC0195
:102780007B018A01BA01CEDF2881398181110DC018
:102790002115310519F0C9010E94591F19821882AB
:1027A0001D821C821B821A8206C01D830C83B70106
:1027B000C9010E94CF20CE01DF91CF911F910F91CF
:1027C000FF90EF900895FC01118210821382128213
:1027D000158214826115710549F0FB0101900020FA
:1027E000E9F73197AF01461B570BC3CF0895CF933D
:1027F000DF93CDB7DEB7AD970FB6F894DEBF0FBE4F
:10280000CDBF789484B5826084BD84B5816084BD79
:1028100085B5826085BD85B5816085BD80916E007E
:10282000816080936E0010928100809181008260AF
:1028300080938100809181008160809381008091EC
:1028400080008160809380008091B10084608093DB
:10285000B1008091B00081608093B00080919100C0
:1028600082608093910080919100816080939100BB
:10287000809190008160809390008091A10082609F
:102880008093A1008091A10081608093A10080913C
:10289000A00081608093A0008091210182608093DC
:1028A000210180912101816080932101809120018B
:1028B00081608093200180917A00846080937A0007
:1028C00080917A00826080937A0080917A008160A2
:1028D00080937A0080917A00806880937A001092C9
:1028E000C10040E956E061E087E10E941109609370
:1028F000590670935A0680935B0640E956E062E001
:1029000087E10E94110960935C0670935D068093D5
:102910005E064CEC56E061E089E10E94110960938B
:1029200056067093570680935806809115068111BC
:102930005DC01092FC051092FB0581E080931506A6
:10294000E0915205F091530582E08083E0914E05BD
:10295000F0914F051082E0915005F09151058FECF8
:10296000808310925A05E0915605F091570586E054
:102970008083E0915405F0915505808180618083CA
:10298000E0915405F0915505808188608083E09145
:102990005405F0915505808180688083E09154054D
:1029A000F091550580818F7D80838091FB0590910A
:1029B000FC058130910571F03CF4892BB9F482E477
:1029C00095E00E94A20B06C08230910539F0039772
:1029D00049F00CC085EA94E00E94A20B88E094E0E4
:1029E0000E94A20B8BE693E00E94A20B69E576E0C1
:1029F00082E496E00E943A026CE576E08EE296E090
:102A00000E943A028091560690915706A09158066E
:102A10008BA79CA7ADA760E070E0CE018B960E94CB
:102A2000100290932D0680932C06E7EBF1E02491A1
:102A3000E1E7F1E08491882399F090E0880F991FF5
:102A4000FC01E65BFE4FA591B491FC01E05DFE4FF9
:102A5000859194918FB7F894EC91E22BEC938FBF12
:102A60008824839452E0252E312C6DE0962E442448
:102A70004394512C8091E9059091EA05A091EB05D2
:102A8000B091EC05892B8A2B8B2BE9F004D90091AE
:102A9000E5051091E6052091E7053091E805DC0198
:102AA000CB01801B910BA20BB30B0091E905109198
:102AB000EA052091EB053091EC05081719072A0764
:102AC0003B0708F484C380911506882331F0809178
:102AD0002A0690912B06892B29F48CEE9FEF0E94F9
:102AE0009103EEC20E94ED0297FF03C08BEE9FEFB1
:102AF00030C28091F6059091F705892B89F40E94E8
:102B0000ED021816190664F4109200061092FF05E3
:102B100010922106109220065092F7054092F60579
:102B20008091F6059091F705019741F08091F605A7
:102B30009091F705029709F0CEC085C00E94ED0282
:102B4000181619060CF0BCC280911B06882309F4E4
:102B500041C0E091FD05F091FE0581818083E09107
:102B6000FD05F091FE05828181830091FD051091A4
:102B7000FE05809115068823E9F08091FB05909170
:102B8000FC058130910571F02CF4892B99F482E4D5
:102B900095E00DC08230910541F0039759F48BE622
:102BA00093E005C085EA94E002C088E094E00E94CA
:102BB000E20A01C080E0D80112968C938091200631
:102BC0009091210601969093210680932006109201
:102BD0001B0613C00E94ED0203970CF471C283E040
:102BE00090E00E940B032091200630912106820F75
:102BF000931F9093210680932006E091FD05F091AC
:102C0000FE05F080F092160681818093170682817E
:102C10008093180600912A0610912B0666E176E053
:102C2000C80130D997FDE8C23092F7052092F60529
:102C30000E94ED02181619060CF078CF80911B0641
:102C4000811182CF73CF0E94ED0202970CF438C23B
:102C500082E090E00E940B03209120063091210633
:102C6000820F931F9093210680932006E091FD052B
:102C7000F091FE054381548150931A064093190642
:102C80004150510966E176E080912A0690912B0629
:102C90004DD990931F0680931E061816190684F0CE
:102CA0000E9491038091F9059091FA050196909305
:102CB000FA058093F9051092F7051092F60500C207
:102CC000019690931F0680931E0683E090E09093F8
:102CD000F7058093F6058091F6059091F705039727
:102CE00009F0EEC10E94ED0220911E0630911F06F0
:102CF000821793070CF4E4C1C9010E940B032091D1
:102D0000200630912106820F931F90932106809315
:102D10002006C0902A06D0902B06E090FD05F0908A
:102D2000FE05F70180818F3F09F0CAC081818230A2
:102D3000F1F0833079F1813009F0F8C0128111305F
:102D400009F0F4C020E030E0A901B701CE010196FE
:102D50000E94570ABE016F5F7F4FC6012BDA97FDB5
:102D6000E5C0D6015E961C9380E090E0EBC0F701D1
:102D70008281813009F0DAC020E030E0A901B7019A
:102D8000CE0101960E94570ABE016F5F7F4FC601B8
:102D900011DAD8C02091FF05309100062150310989
:102DA000F701E20FF31F8081F70100E0AF014E1938
:102DB0005F09421753071CF49191090FF7CF0827B9
:102DC00010E00115110509F0BBC0D60192961C92C6
:102DD0001E92919719825601BFE1AB0EB11CBE0144
:102DE0006F5F7F4FC50128D8E091FD05F091FE058A
:102DF000E2800E2C000CFF083F0123E0620E711CE4
:102E00006114710409F450C01E141F048CF0F30106
:102E1000E12CF12C8191882341F08FEFE81AF80A18
:102E20009FEFE916F104B1F73FC0E114F104E1F1BD
:102E3000D60191966D917C9192971616170624F4FF
:102E4000AB014150510902C040E050E06E0D7F1DC2
:102E5000C5010E94A10E81111BC0F60181A192A1A2
:102E6000019792A381A31816190694F4D60191969E
:102E70002D913C9192978217930754F45F96ED91B0
:102E8000FC919097E80FF91F218120830196EECFE6
:102E9000A701B301C5010E94E20E1982BE016F5F56
:102EA0007F4FC5010E941C0FF60181A192A1181647
:102EB00019061CF48C0101501109C801059642C085
:102EC00019821A821B828081898381818A8382810F
:102ED0008B83BE016F5F7F4FC6010E94420F97FD3B
:102EE00031C0989E9001999E300D1124F601C3A423
:102EF000D4A4C20ED31E0091FF0510910006053028
:102F0000110574F0D70111969C911197F6018181FA
:102F1000981309C012969C918281981304C099C19C
:102F200084EF9FEF0FC085EF9FEF0CC08FEF9FEFF7
:102F300009C0F701E80FF91F8081281709F4B2C111
:102F400081EF9FEF1092F7051092F60518161906FB
:102F500064F00E9491038091F9059091FA05019621
:102F60009093FA058093F905ABC08092F805E09044
:102F70001906F0901A0660E372E0CE01859623DC14
:102F800060E070E089E596E00E9410025C0169E56E
:102F900076E08FE596E00E94420F97FD11C0989E63
:102FA0009001999E300D1124E0918A06F0918B06D4
:102FB000E20FF31F0384F485E02D0685178501C019
:102FC0008C014FEF5FEF69E576E08FE596E00E94B8
:102FD000960F6C016DE472E0CE0185960E94CC06DE
:102FE000B801CE010196BDD9BE016F5F7F4FCE0102
:102FF00085961BDACE0101961EDA6AE572E0CE01F3
:1030000085960E94CC06B601CE010196AAD9BE01D2
:103010006F5F7F4FCE01859608DACE0101960BDAFD
:1030200061E772E0CE0185960E94CC068DA19EA13B
:103030000E944F0140E050E06CE872E0CE018596BE
:1030400098DB6501C6018A199B0980179107BCF4BA
:10305000F60161916F0170E0CE01019682D9BE0147
:103060006F5F7F4FCE018596E0D9CE010196E3D9FF
:1030700068E572E0CE0185960E94CC06E3CF8DA173
:103080009EA10E944F0180911706909157068913C7
:1030900007C02091180690915806291709F430C1ED
:1030A00090915A06891307C02091180690915B06EB
:1030B000291709F42EC1CE018596BDD91092F805C5
:1030C0008091F1059091F205A091F305B091F4057E
:1030D000892B8A2B8B2B49F10E944B0E0091ED0519
:1030E0001091EE052091EF053091F005DC01CB0148
:1030F000801B910BA20BB30B0091F1051091F2050F
:103100002091F3053091F405081719072A073B07AA
:1031100060F40E944B0E6093ED057093EE05809372
:10312000EF059093F0058092F5058091F5058111EA
:103130001092F50520910B0630910C0621153105F2
:1031400009F442C034F18091110690911206AC014D
:10315000440F551FE0910906F0910A06E40FF51F90
:10316000008111812150310930930C0620930B0608
:103170000196909312068093110620910D063091CE
:103180000E06821793073CF0109212061092110659
:1031900002C000E010E06BEA72E0CE014F9613DB54
:1031A000B801CE010196DDD8BE016F5F7F4FCE0121
:1031B0004F963BD9CE0101963ED98F8D98A10E94A2
:1031C0004F01CE014F9637D90E94C30B53CC0E94BA
:1031D0004B0E6093E5057093E6058093E7059093A9
:1031E000E8056091E205E1E06E276093E2058091D9
:1031F000E3050E94CD0D67CCFFEFFF121AC04FEF21
:103200005FEF66E176E0C8010E94960F90931F067B
:1032100080931E061816190664F4019690931F06F3
:1032200080931E0683E090E09093F7058093F60567
:10323000FFCC85EF9FEF0E94910380921B06809147
:10324000F9059091FA0501969093FA058093F90596
:10325000EFCCD7011396AD90BC901497B1E0AB1AA8
:10326000B1080384F485E02D828593858A159B053A
:103270000CF443C0B501C6010E94720F3C01F6E098
:103280006F0E711C061517059CF1F70120E00596DD
:10329000AF014E195F09481759070CF04ACE31911A
:1032A000230FF6CFB7FE1BC0E12CF12C05E010E098
:1032B000D6011B96ED91FC911C9782859385E816AB
:1032C000F906CCF4A701B801C6010E94F30397FDEB
:1032D00039CE080F191FBFEFEB1AFB0AE9CFA50182
:1032E00065E070E0C6010E94F30397FD2BCE03C09A
:1032F00082EF9FEF27CEC30125CE83EF9FEF22CE33
:10330000E0912C06F0912D0660818DE00E94CD0D9C
:10331000D2CEE0912C06F0912D0690819111CBCE6A
:103320006701F1E0CF1AD10890915D06891729F065
:1033300080911506811183C089C066E176E08FE532
:1033400096E00E94420F8C0197FDF2CF6CE576E08B
:103350008FE596E00E94420F97FDEACF20918A0602
:1033600030918B06989ED001999EB00D1124A20F2A
:10337000B31F1B96ED91FC911C97D7FE03C0868569
:10338000978517C00480F581E02DC601880F991F2D
:10339000880F991FE80FF91F8281938102978A3065
:1033A000910530F6FC01E05FFD4F8081082E000C96
:1033B000990B181619060CF0BBCF909EF001919E48
:1033C000F00D1124E20FF31F238134812115310503
:1033D00069F0D7FC0EC00580F681E02D9601220F22
:1033E000331FE20FF31F4081518104C040E050E0E1
:1033F00001C0A90113966D917C9114976115710517
:1034000071F0D7FC0FC01596ED91FC9116979601BF
:10341000220F331FE20FF31F3081218105C030E0FE
:1034200020E002C0362F272FFA01A32FB22F840FDE
:10343000951F21912D938E179F07D9F779CFA090D3
:103440002A06B0902B06A114B10419F48CEE9FEF5C
:103450009DC069E576E0C5010E94420F97FD96C0C8
:10346000989E9001999E300D1124D5019B960D9147
:103470001C919C97020F131F1092060610920506CE
:10348000B601C8010E94720FBC016A5F7F4F4FEF07
:103490005FEF83E096E00E94A10EF80180818983AE
:1034A000BE016F5F7F4F83E096E00E941C0FD80142
:1034B00011968C918983BE016F5F7F4F83E096E008
:1034C0000E941C0FF80182818983BE016F5F7F4FCC
:1034D00083E096E00E941C0FE982BE016F5F7F4F80
:1034E00083E096E00E941C0FF982BE016F5F7F4F60
:1034F00083E096E00E941C0FD7FE21C0E12CF12C46
:10350000D8011B96ED91FC911C9782859385E81656
:10351000F9065CF01982409105065091060620914B
:10352000030630910406F90111C0B701C8010E94D9
:10353000DB0697FD21C0BFEFEB1AFB0AE1CFB60116
:10354000C8010E94DB0697FFE5CF16C0CF01821BA2
:10355000930B841795072CF481919981890F8983A6
:10356000F5CFBE016F5F7F4F83E096E00E941C0F96
:103570008091050690910606181619063CF40E94E3
:103580002012909323068093220697FD0E949103B8
:1035900069E772E0CE014F9616D9609105067091E9
:1035A0000606CE0101960E94B111BE016F5F7F4FEA
:1035B000CE014F960E941512CE0101960E941B1259
:1035C0006DE872E0CE014F960E94CC068F8D98A1D7
:1035D0000E944F01CE014F960E941B126CCDCF93DB
:1035E000DF9384E296E00E947D0C80910906909121
:1035F0000A06009709F05DD483E096E00E94AF10C0
:103600008DEF95E00E94AF10C0918A06D0918B0695
:103610002097D9F0FE013297208131814DE0429F01
:10362000C001439F900D1124C80FD91F9E012D97F3
:1036300080918A0690918B068217930721F0CE0124
:103640000E94B710F3CF029734D484E896E00E942A
:103650007D0C8EE796E00E94AF1084E996E00E9410
:103660007D0C80ED96E0DF91CF910C947D0C0F9353
:103670001F93CF93DF9310926E0310926D0348EE69
:1036800053E060E070E040936F03509370036093E9
:1036900071037093720382E292E090936C038093C3
:1036A0006B0325E331E0309378032093770324E321
:1036B00031E030937A032093790320E331E03093B3
:1036C0007C0320937B0321E331E030937E0320933E
:1036D0007D0322E331E03093800320937F0326E3D0
:1036E00031E030938203209381031092840310927F
:1036F0008503109286031092870310920B04109298
:103700000A0440930C0450930D0460930E047093CC
:103710000F04909309048093080425ED30E0309362
:1037200015042093140424ED30E030931704209303
:10373000160420ED30E0309319042093180421ED95
:1037400030E030931B0420931A0422ED30E03093D4
:103750001D0420931C0426ED30E030931F042093B9
:103760001E0410922104109222041092230410923D
:1037700024041092A8041092A7044093A904509323
:10378000AA046093AB047093AC049093A604809356
:10379000A5042DEC30E03093B2042093B1042CEC5E
:1037A00030E03093B4042093B30428EC30E030933D
:1037B000B6042093B50429EC30E03093B80420938C
:1037C000B7042AEC30E03093BA042093B9042EEC0D
:1037D00030E03093BC042093BB041092BE041092DE
:1037E000BF041092C0041092C104109245051092BB
:1037F00044054093460550934705609348057093F0
:103800004905909343058093420585EC90E09093A1
:103810004F0580934E0584EC90E090935105809382
:10382000500580EC90E0909353058093520581EC15
:1038300090E0909355058093540582EC90E090932E
:1038400057058093560586EC90E090935905809338
:10385000580510925B0510925C0510925D05109260
:103860005E0581ED92E09093DD068093DC0603E037
:1038700010E01093DF060093DE06CCE8D2E0D09390
:10388000E106C093E0061092E3061092E2064CEDCA
:1038900056E066ED72E08CEC96E00E948E1289EEA6
:1038A00092E09093A1068093A00682E090E090932E
:1038B000A3068093A20683EF92E09093A5068093DF
:1038C000A4061093A7060093A6068EEF92E09093AD
:1038D000A9068093A80684E090E09093AB068093BD
:1038E000AA0689E093E09093AD068093AC0685E04C
:1038F00090E09093AF068093AE0685E193E09093BD
:10390000B1068093B00686E090E09093B306809372
:10391000B20680E293E09093B5068093B40687E008
:1039200090E09093B7068093B6068CE293E0909374
:10393000B9068093B80688E090E09093BB06809328
:10394000BA0687E393E09093BD068093BC0689E0B6
:1039500090E09093BF068093BE0683E493E090933B
:10396000C1068093C0068AE090E09093C3068093DE
:10397000C2068EE493E09093C5068093C4068BE064
:1039800090E09093C7068093C606D093C906C09373
:10399000C8061092CB061092CA0640EA56E06DEDBA
:1039A00072E080E996E00E948E128FE596E00E9418
:1039B000CD1010927F0610927E0610928106109212
:1039C000800610928306109282061092850610924D
:1039D000840610928706109286061092890610922D
:1039E000880610928B0610928A0610928D0610920D
:1039F0008C0682E08093730630911A0220911B029C
:103A000090911C0280911D023093740620937506DC
:103A10009093760680937706AAE5B3E0EFE5F6E0AB
:103A200080E090E02D91222319F083319105A9F4D3
:103A3000FC01E15AF94F108210927D06C3E0D0E0FC
:103A4000D0938F06C0938E0689E290E09AD1DC0174
:103A5000CD93DD93FC01879603C021930196E2CFBD
:103A6000128213821482108617821286118614869F
:103A7000138616821582168615863D968E179F0729
:103A800079F7B0938B06A0938A0610925C06109289
:103A90005D0610925E061092590610925A06109218
:103AA0005B06109256061092570610925806109216
:103AB0004306109242061092450610924406109258
:103AC0004706109246061092490610924806109238
:103AD0004B0610924A0610924D0610924C06109218
:103AE0004F0610924E0610925106109250061092F8
:103AF00053061092520610925506109254061092D8
:103B00002F0610922E061092310610923006109257
:103B10003306109232061092350610923406109237
:103B20003706109236061092390610923806109217
:103B30003B0610923A0610923D0610923C061092F7
:103B40003F0610923E0610924106109240061092D7
:103B50002D0610922C061092F7051092F605109281
:103B6000F8051092FA051092F9051092FE051092D0
:103B7000FD05109200061092FF05109202061092A9
:103B80000106109204061092030610920606109287
:103B9000050610920806109207061092140610925D
:103BA000130684E190E0EDD090930A068093090615
:103BB000892B91F010920C0610920B0610921006B1
:103BC00010920F0610921206109211068AE090E0F1
:103BD00090930E0680930D0610921506109216060D
:103BE000109217061092180610921B0610921D06CE
:103BF00010921C0610921F0610921E0610922106AB
:103C0000109220061092230610922206109225068A
:103C1000109224061092270610922606109229066A
:103C2000109228068FE596E090932B0680932A0643
:103C30001092F50588EE93E0A0E0B0E08093F105E6
:103C40009093F205A093F305B093F4050E944B0EF8
:103C50006093ED057093EE058093EF059093F0056A
:103C60001092E2058DE090E09093E4058093E305E7
:103C70001092E9051092EA051092EB051092EC05FE
:103C80000E944B0E6093E5057093E6058093E7056F
:103C90009093E805DF91CF911F910F910895BB2775
:103CA0004A3031F4992322F4BDE2909581959F4FDB
:103CB00001C0BB27FB015527AA27880F991FAA1F00
:103CC000A41710F0A41B83955051B9F7A05DAA3337
:103CD00008F0A95DA193009779F7B111B193119202
:103CE000CB0100C0DC01FC01672F71917723E1F764
:103CF000329704C07C916D9370836291AE17BF07B9
:103D0000C8F30895EE0FFF1F881F8BBF0790F69131
:103D1000E02D19940F93083090F0982F872F762F6D
:103D2000652F542F432F322F22270850F4CF220F14
:103D3000331F441F551F661F771F881F991F0A9541
:103D4000B2F70F91089597FB10F8169400080F939F
:103D5000083098F00850232F342F452F562F672F07
:103D6000782F892F902DF4CF059497958795779587
:103D7000679557954795379527950A95AAF70F9117
:103D800008950F931F93CF93DF938230910510F422
:103D900082E090E0E091E606F091E70620E030E076
:103DA000A0E0B0E0309719F1408151810281138188
:103DB00048175907C8F08417950769F4109731F030
:103DC00012960C93129713961C9327C00093E60645
:103DD0001093E70622C02115310519F04217530749
:103DE00018F49A01BD01EF01DF01F801DBCF2115C5
:103DF0003105F9F0281B390B2430310580F48A8114
:103E00009B816115710521F0FB019383828304C0BE
:103E10009093E7068093E606FE01329644C0FE01C9
:103E2000E20FF31F81939193225031093983288344
:103E30003AC02091E4063091E506232B41F420910D
:103E40000202309103023093E5062093E4062091AC
:103E50000002309101022115310541F42DB73EB722
:103E60004091040250910502241B350BE091E406B9
:103E7000F091E506E217F307A0F42E1B3F0B28177D
:103E8000390778F0AC014E5F5F4F2417350748F0D3
:103E90004E0F5F1F5093E5064093E4068193919384
:103EA00002C0E0E0F0E0CF01DF91CF911F910F91D0
:103EB0000895CF93DF93009709F481C0FC013297F6
:103EC00013821282A091E606B091E706109781F462
:103ED00020813181820F931F2091E4063091E50605
:103EE0002817390751F5F093E506E093E40667C01B
:103EF000ED0120E030E0CE17DF0740F44A815B811E
:103F00009E0141155105F1F0EA01F5CFD383C2833B
:103F100040815181840F951FC817D90759F48881B2
:103F20009981840F951F0296918380838A819B815A
:103F3000938382832115310529F4F093E706E093FA
:103F4000E6063DC0E901FB83EA8349915991C40F1C
:103F5000D51FEC17FD0761F480819181840F951FB7
:103F60000296E90199838883828193819B838A8366
:103F7000E0E0F0E012968D919C911397009719F074
:103F8000FD01DC01F7CF8D919C9111979D012E5F72
:103F90003F4F820F931F2091E4063091E5062817CA
:103FA000390769F4309729F41092E7061092E60673
:103FB00002C013821282B093E506A093E406DF915B
:103FC000CF9108956F927F928F929F92AF92BF92FE
:103FD000CF92DF92EF92FF920F931F93CF93DF93D5
:103FE000009781F4CB01DF91CF911F910F91FF904A
:103FF000EF90DF90CF90BF90AF909F908F907F9089
:104000006F90BFCEFC01E60FF71F9C0122503109D3
:10401000E217F30708F4A5C0EC01D9010D911C913A
:10402000119706171707A8F00530110508F497C077
:10403000C80104978617970708F491C00250110928
:10404000061B170B019311936D937C93CF0131DF06
:1040500086C05B01A01AB10A4C01800E911EA0918E
:10406000E606B091E706612C712CE12CF12C10973B
:1040700009F446C08D919C911197A815B905B1F529
:104080006C0142E0C40ED11CCA14DB0478F14C016F
:104090008A189B08640142E0C40ED11C1296BC90A1
:1040A00012971396AC91B5E0CB16D10440F0B282D2
:1040B000A38391828082D9016D937C9309C00E5FA6
:1040C0001F4F800F911FF90191838083EB2DFA2FF1
:1040D000E114F10431F0D7011396FC93EE9312979B
:1040E0003EC0F093E706E093E60639C0681679060D
:1040F00008F43C017D0112960D90BC91A02DB7CF24
:104100008091E4069091E50688169906E1F466161A
:104110007706C8F48091000290910102009741F463
:104120008DB79EB74091040250910502841B950BF8
:10413000E817F907B0F4F093E506E093E406F90117
:10414000718360830CC0CB011CDE7C01009749F0B9
:10415000A801BE011BD0CE01ACDEC70104C0CE0158
:1041600002C080E090E0DF91CF911F910F91FF900E
:10417000EF90DF90CF90BF90AF909F908F907F9007
:104180006F90089581E090E0F89410C0FB01DC018D
:1041900002C001900D9241505040D8F70895FB01A4
:1041A000DC0101900D920020E1F7089511E0CCE1CF
:1041B000D1E000E005C0802FFE01A4DD2196011DA5
:0E41C000CD31D10780E00807B1F7F894FFCFAA
:1041CE000000E80680000101020204040808040849
:1041DE0001010202040408080404010400010000A5
:1041EE000000560B6212D30AA20B040BE20AF60A67
:1041FE000A2D2D2D2D2D2D2D2D2D2D2D2D2D2D2D04
:10420E002D0A52656365697665643A0A004C6F63E0
:10421E00616C2073697A653A200020627974657347
:10422E000A5472616E736665722073697A653A20FC
:10423E00002062797465730A000A2D2D2D2D2D2D07
:10424E002D2D2D2D2D2D2D2D2D2D2D0A002062796C
:10425E0074657320696E2061726475696E6F207368
:10426E00656E6420627566666572000A2D2D2D2DB1
:10427E002D2D2D2D2D2D2D2D2D2D2D2D0A456E63F4
:10428E006F756E7465726564206572726F723A2016
:10429E00006D6F64650041726475696E6F5465736D
:1042AE00742053747275637400746573745F696EF1
:1042BE00743800746573745F75696E743800746554
:1042CE0073745F696E74313600746573745F7569EB
:1042DE006E74313600746573745F696E74333200B8
:1042EE00746573745F75696E7433320074657374BC
:1042FE005F696E74363400746573745F75696E74BD
:10430E00363400746573745F666C6F617400746527
:10431E0073745F646F75626C650041726475696E6B
:02432E006F001E
:00000001FF
