:1000000008C1000037C1000035C1000033C1000045
:1000100031C100002FC100002DC100002BC1000024
:1000200029C1000027C1000025C1000023C1000034
:1000300021C100001FC100001DC100001BC1000044
:1000400019C1000017C1000015C1000013C1000054
:1000500011C100000FC100000DC100000C94DD09AA
:1000600009C100000C9405090C94DC0803C10000D0
:1000700001C10000FFC00000FDC00000FBC0000087
:10008000F9C00000F7C00000F5C00000F3C0000098
:100090000C94B3080C948A08EDC00000EBC000007B
:1000A000E9C00000E7C00000E5C00000E3C00000B8
:1000B000E1C00000DFC00000DDC00000DBC00000C8
:1000C000D9C00000D7C00000D5C00000FAC70000AA
:1000D000CFC70000CFC00000A2C7000077C7000054
:1000E000C9C000005D0960094F0953095709970904
:1000F000640968096E09720976097C098009840916
:1001000097098A098E09920900002200250028001B
:100110002B002E003100340002010000050108010F
:100120000B0100002100240027002A002D003000D0
:10013000330001010000040107010A01050505055E
:10014000070508080808020202020A0A080804044F
:10015000040401010101010101010303030303037D
:100160000303040707070C0C0C0C0C0C0C0C02020C
:10017000020206060606060606060B0B0B0B0B0B09
:100180000B0B010210202008081020401020408096
:10019000020102010804020101020408102040804B
:1001A00080402010080402018004020180402010D9
:1001B0000804020108040201010204081020408022
:1001C000010204081020408000000A0B02090C0DF7
:1001D0000E080703040100000000000000000000FA
:1001E000000000000000000000000000000000000F
:1001F00000000000121110000000000000000000CC
:100200000000000000000000000000000000C51613
:10021000DF1911241FBECFEFD1E2DEBFCDBF00E05A
:100220000CBF26E0A4E0B3E001C01D92A53CB207DC
:10023000E1F713E0A0E0B2E0E0E8F7E300E00BBF95
:1002400002C007900D92A430B107D9F711E0C8E0C1
:10025000D1E000E006C021970109802FFE010E9435
:100260004B1AC730D10780E00807A9F70E94450F55
:100270000C94AF1BC5CECF92DF92EF92FF92CF933B
:10028000DF93EC016A017B01E889F98982E08083D0
:100290004115514E61057105B1F060E079E08DE3E3
:1002A00090E0A70196010E94291ADA01C90101977D
:1002B000A109B109B695A795979587959C01211538
:1002C00080E13807A8F0E889F989108260E874E8CD
:1002D0008EE190E0A70196010E94291ADA01C90176
:1002E0000197A109B109B695A795979587959C01A6
:1002F000EC85FD853083EE85FF852083188EEC89A3
:10030000FD8986E08083EA89FB8980818061808322
:10031000EA89FB89808188608083EA89FB89808102
:1003200080688083EA89FB8980818F7D8083DF916B
:10033000CF91FF90EF90DF90CF900895CF93DF9310
:10034000EB01BC0189E396E00E944B0A97FD1BC0BC
:100350004DE0489F9001499F300D1124E0915E06C9
:10036000F0915F06E20FF31F83819481009759F0AB
:10037000D7FD0BC0CC0FDD1F85819681C80FD91F1B
:100380008881998102C080E090E0DF91CF9108954B
:10039000EF92FF920F931F93CF93DF93CDB7DEB70A
:1003A0006E970FB6F894DEBF0FBECDBF8C017B01F8
:1003B000FB0180819181A28189839A83AB8360E074
:1003C00070E0CE010196BADFF80191838083F701D6
:1003D00080819181A2818C839D83AE8361E070E0F6
:1003E000CE010496ABDFF80193838283F70180810D
:1003F0009181A2818F839887A98762E070E0CE0106
:1004000007969CDFF80195838483F70180819181B1
:10041000A2818A879B87AC8763E070E0CE010A9651
:100420008DDFF80197838683F70180819181A28116
:100430008D879E87AF8764E070E0CE010D967EDFEA
:10044000F80191878087F70180819181A281888B53
:10045000998BAA8B65E070E0CE0140966FDFF801C2
:1004600093878287F70180819181A2818B8B9C8BFE
:10047000AD8B66E070E0CE01439660DFF8019587B2
:100480008487F70180819181A2818E8B9F8BA88FB9
:1004900067E070E0CE01469651DFF80197878687C6
:1004A000F70180819181A281898F9A8FAB8F68E05B
:1004B00070E0CE01499642DFF801918B808BF70105
:1004C00080819181A2818C8F9D8FAE8F69E070E0D9
:1004D000CE014C9633DFF801938B828B6E960FB66C
:1004E000F894DEBF0FBECDBFDF91CF911F910F916A
:1004F000FF90EF900895009769F0FC0101900020B3
:10050000E9F73197AF01481B590BBC018FED94E01F
:100510000C94830C80E090E008958F929F92AF92AC
:10052000BF920F931F93CF93DF93CDB7DEB7A19701
:100530000FB6F894DEBF0FBECDBF19A2423008F44B
:100540004AE08E010F5D1F4F842E912CA12CB12CFF
:10055000A50194010E94291AE62FB901CA01015090
:100560001109EA3014F4E05D01C0E95CD801EC93B4
:10057000232B242B252B61F7C801BDDFA1960FB6D5
:10058000F894DEBF0FBECDBFDF91CF911F910F91C9
:10059000BF90AF909F908F900895ADCF8091D5057B
:1005A0009091D6058130910571F02CF4892B89F456
:1005B0008FED94E00DC08230910541F0039749F42E
:1005C00088E093E005C082E494E002C085EA93E00D
:1005D0007CC38FEF9FEF08950F931F93CF93DF930B
:1005E000EC018C819D81861797074CF5CB017D83AB
:1005F0006C830881198101151105D9F00E948A1AAE
:1006000099838883D80180E090E02A813B8182171A
:10061000930744F42D91E881F981E80FF91F2083B5
:100620000196F3CFC801DF91CF911F910F910C94E8
:10063000221B1B821A820E948A1A99838883DF9167
:10064000CF911F910F910895EF92FF920F931F93F7
:10065000CF93DF931F92CDB7DEB72091EF05222312
:1006600009F467C08C01BC0187ED95E0B5DF80918E
:10067000D5059091D6058130910599F034F4892BF8
:1006800009F057C0E12CF12C1CC08230910531F0EB
:10069000039709F04EC0E12CF12C3AC0E12CF12C6B
:1006A00026C0E12CF12C12C08FED94E0ECD28983AE
:1006B000BE016F5F7F4F87ED95E0C9D68FEFE81AD7
:1006C000F80AE016F10684F3C80135C0E016F10619
:1006D000DCF782E494E0D7D28983BE016F5F7F4F5D
:1006E00087ED95E0B4D68FEFE81AF80AEFCFE01661
:1006F000F10654F785EA93E0C6D28983BE016F5FA5
:100700007F4F87ED95E0A3D68FEFE81AF80AEFCF79
:10071000E016F106CCF688E093E0B5D28983BE01FD
:100720006F5F7F4F87ED95E092D68FEFE81AF80A5A
:10073000EFCF8FEF9FEF0F90DF91CF911F910F9130
:10074000FF90EF9008954091E5055091E6052091C6
:10075000E7053091E805421753076CF5E091E9058C
:10076000F091EA05EE0FFF1F2091E3053091E405BB
:10077000E20FF31F918380838091E9059091EA0550
:1007800001969093EA058093E9052091E705309161
:10079000E8058217930724F01092EA051092E90504
:1007A0008091E5059091E60501969093E60580938A
:1007B000E50580E008952091ED053091EE05232BAD
:1007C00011F5E091E905F091EA05EE0FFF1F209188
:1007D000E3053091E405E20FF31F9183808380915C
:1007E000E9059091EA0501969093EA058093E90561
:1007F0002091E7053091E8058217930724F01092C5
:10080000EA051092E90581E008957F928F929F9208
:10081000AF92BF92CF92DF92EF92FF920F931F930E
:10082000CF93DF93EC01FA01AB85BC85CA01880F39
:10083000991F880F991F14960D90BC91A02DA80F99
:10084000B91F12968D919C91139702978A3091054A
:1008500008F0B0C0DC01A65FBD4F8C91823071F111
:10086000BCF4813009F0A6C0EE0FFF1F8D819E8180
:10087000E80FF91F0190F081E02DA091D705B0910C
:10088000D805A60FB71F8C91808381E090E094C0BB
:10089000843081F1883009F08DC0A091D705B091E6
:1008A000D805A60FB71FE12CF12C712C812C912CAF
:1008B000A12CB12CC12CD12C10E04EC0A091D70599
:1008C000B091D805EE0FFF1F8D819E81E80FF91FB3
:1008D0000190F081E02DA60FB71F11968C91119712
:1008E00090E0982F88272C91822B9183808382E03F
:1008F00090E062C0A091D705B091D8056A0F7B1F28
:1009000020E030E0C12CD12C7601DB018D91BD01BE
:1009100090E0A0E0B0E0022E04C0880F991FAA1F4B
:10092000BB1F0A94D2F7C82AD92AEA2AFB2A285FD1
:100930003F4F2032310549F7EE0FFF1F8D819E8119
:10094000E80FF91F0190F081E02DC082D182E28290
:10095000F38284E090E030C02D9130E040E050E040
:1009600060E070E080E090E00E2D0E94531A722A41
:10097000832A942AA52AB62AC72AD82A192B88E0BE
:10098000E80EF11C80E4E816F10431F7EE0FFF1FCA
:100990008D819E81E80FF91F0190F081E02D70821A
:1009A00081829282A382B482C582D682178388E034
:1009B00090E002C080EF9FEFDF91CF911F910F91E8
:1009C000FF90EF90DF90CF90BF90AF909F908F906F
:1009D0007F900895AF92BF92CF92DF92EF92FF92F5
:1009E0000F931F93CF93DF93CDB7DEB760970FB60A
:1009F000F894DEBF0FBECDBFFA01228533851216F3
:100A0000130624F060E070E080E019C17A01162F2F
:100A1000082FD0904D06DE868F87688BBE01625FFF
:100A20007F4F89E396E037D597FD04C06D2D702F79
:100A3000812F05C119821A821B821F821E8219868C
:100A400018861B861A861D821C821D861C860091B4
:100A50006006109161068091620690916306081706
:100A600019070CF4ADC06801FFEFCF1ADF0A8C152F
:100A70009D050CF0A5C0D0926306C0926206A090BE
:100A80005E06B0905F06A114B10409F467C021ECC2
:100A9000C21629E0D20640F42DE02C9DC0012D9D08
:100AA000900D1124029602C08FEF9FEF0E948A1AC8
:100AB000DC01CD92DD92FC01015011090E3F8FEF58
:100AC000180779F012821382148210861782128618
:100AD00011861486138616821582168615863D9613
:100AE000EBCFB0935F06A0935E068501C12CD12C9D
:100AF0008091600690916106C816D906BCF42091D9
:100B00005E0630915F06C8018A199B09820F931F08
:100B1000F801638574856115710511F0A8010FD581
:100B2000FFEFCF1ADF0A035F1F4FE2CFF50192916B
:100B300082916F012DE0289F8001299F100D1124C3
:100B40000A0D1B1DA016B10629F00D501109C80190
:100B5000E0D5F8CFC6010E94221B32C01092610678
:100B600010926006F1ECCF16F9E0DF0640F42DE0BC
:100B70002C9DC0012D9D900D1124029602C08FEF77
:100B80009FEF0E948A1ADC01CD92DD92FC01015098
:100B900011090E3F2FEF120779F01282138214828F
:100BA0001086178212861186148613861682158285
:100BB000168615863D96EBCFB0935F06A0935E0632
:100BC00020916006309161064DE0429FC001439F35
:100BD000900D112420915E0630915F06820F931FC5
:100BE0006C857D856115710521F0AE014F5F5F4F0A
:100BF000A6D480916006909161060196909361065B
:100C000080936006CE01019684D5209160063091D4
:100C10006106215031094DE0429FC001439F900D74
:100C2000112420915E0630915F06AE01425F5F4F56
:100C3000B701820F931F83D46E857F858889609664
:100C40000FB6F894DEBF0FBECDBFDF91CF911F91DD
:100C50000F91FF90EF90DF90CF90BF90AF900895ED
:100C6000089580E090E00895FC01538D448D252F78
:100C700030E0842F90E0821B930B541710F0CF9636
:100C8000089501970895FC01918D828D981761F068
:100C9000828DDF01A80FB11D5D968C91928D9F5FB3
:100CA0009F73928F90E008958FEF9FEF0895FC015E
:100CB000918D828D981731F0828DE80FF11D858D11
:100CC00090E008958FEF9FEF0895FC01918D228DA4
:100CD000892F90E0805C9F4F821B91098F73992729
:100CE000089588E093E0F1DF21E0892B09F420E00A
:100CF000822F089585EA93E0E8DF21E0892B09F44B
:100D000020E0822F089582E494E0DFDF21E0892B48
:100D100009F420E0822F08958FED94E0D6DF21E0E2
:100D2000892B09F420E0822F0895FC01848DDF01D6
:100D3000A80FB11DA35ABF4F2C91848D90E001964E
:100D40008F739927848FA689B7892C93A089B1893D
:100D50008C91837080648C93938D848D981306C0DE
:100D60000288F389E02D80818F7D80830895EF9242
:100D7000FF920F931F93CF93DF93EC0181E0888F55
:100D80009B8D8C8D981305C0E889F989808185FD3C
:100D900025C0F62E0B8D10E00F5F1F4F0F7311272C
:100DA000E02E8C8DE8120BC00FB607FCFACFE88955
:100DB000F989808185FFF5CFCE01B7DFF2CF8B8D2A
:100DC000FE01E80FF11DE35AFF4FF0829FB7F89440
:100DD0000B8FEA89FB89808180620AC09FB7F894F3
:100DE000EE89FF896083E889F98980818370806456
:100DF00080839FBF81E090E0DF91CF911F910F91A1
:100E0000FF90EF900895CF93DF93EC01888D8823B6
:100E1000C1F0EA89FB89808185FD05C0A889B9896F
:100E20008C9186FD0EC00FB607FCF5CF808185FF43
:100E3000F2CFA889B9898C9185FFEDCFCE0175DFFE
:100E4000E8CFDF91CF91089580E090E0892B19F0F1
:100E500063DF811116C080E090E0892B19F053DF29
:100E6000811112C080E090E0892B19F043DF8111DD
:100E70000EC080E090E0892B79F033DF81110AC049
:100E800008950E940000E7CF0E940000EBCF0E946F
:100E90000000EFCF0C9400000895CF92DF92EF9204
:100EA000FF920F931F93CF93DF93EC018B01CA80C6
:100EB000DB802C813D81C216D3060CF43FC0C601F5
:100EC000019628173907D4F59D838C83E880F98033
:100ED000E114F10421F181382FE3920718F4880F0F
:100EE000991F02C08FEF9FEF0E948A1A998388830F
:100EF000D70180E090E08C159D056CF44D915D91DB
:100F00009C01220F331FE881F981E20FF31F518307
:100F100040830196F0CFC7010E94221B0FC01B82A5
:100F20001A828138EFE39E0718F4880F991F02C0D8
:100F30008FEF9FEF0E948A1A998388838A819B8111
:100F4000F801408151819C01220F331FE881F98112
:100F5000E20FF31F5183408301969B838A83DF91C5
:100F6000CF911F910F91FF90EF90DF90CF90089558
:100F70000F931F93CF93DF938C01EB01FC018081D2
:100F80009181009711F00E94221BF80113821282B6
:100F9000D583C483C138FFE3DF0720F4CE01880F77
:100FA000991F02C08FEF9FEF0E948A1AF801918368
:100FB0008083DF91CF911F910F910895FC01808173
:100FC0009181009711F00C94221B08951F920F92AB
:100FD0000FB60F9211240BB60F922F933F934F939E
:100FE0005F936F937F938F939F93AF93BF93EF9391
:100FF000FF9388E093E099DEFF91EF91BF91AF916D
:101000009F918F917F916F915F914F913F912F9120
:101010000F900BBE0F900FBE0F901F9018951F9250
:101020000F920FB60F9211240BB60F922F933F938E
:101030004F935F936F937F938F939F93AF93BF93E0
:10104000EF93FF9388E093E08FD6FF91EF91BF91EC
:10105000AF919F918F917F916F915F914F913F9150
:101060002F910F900BBE0F900FBE0F901F901895F1
:101070001F920F920FB60F9211240BB60F922F935F
:101080003F934F935F936F937F938F939F93AF9310
:10109000BF93EF93FF9385EA93E047DEFF91EF91D3
:1010A000BF91AF919F918F917F916F915F914F9180
:1010B0003F912F910F900BBE0F900FBE0F901F907E
:1010C00018951F920F920FB60F9211240BB60F9224
:1010D0002F933F934F935F936F937F938F939F9340
:1010E000AF93BF93EF93FF9385EA93E03DD6FF91D3
:1010F000EF91BF91AF919F918F917F916F915F9190
:101100004F913F912F910F900BBE0F900FBE0F90FC
:101110001F9018951F920F920FB60F9211240BB6C5
:101120000F922F933F934F935F936F937F938F9380
:101130009F93AF93BF93EF93FF9382E494E0F5DD29
:10114000FF91EF91BF91AF919F918F917F916F919F
:101150005F914F913F912F910F900BBE0F900FBE5B
:101160000F901F9018951F920F920FB60F92112497
:101170000BB60F922F933F934F935F936F937F9391
:101180008F939F93AF93BF93EF93FF9382E494E089
:10119000EBD5FF91EF91BF91AF919F918F917F918F
:1011A0006F915F914F913F912F910F900BBE0F90D8
:1011B0000FBE0F901F9018951F920F920FB60F92AF
:1011C00011240BB60F922F933F934F935F936F931E
:1011D0007F938F939F93AF93BF93EF93FF938FED85
:1011E00094E0A3DDFF91EF91BF91AF919F918F911B
:1011F0007F916F915F914F913F912F910F900BBE17
:101200000F900FBE0F901F9018951F920F920FB660
:101210000F9211240BB60F922F933F934F935F932E
:101220006F937F938F939F93AF93BF93EF93FF93AE
:101230008FED94E099D5FF91EF91BF91AF919F9180
:101240008F917F916F915F914F913F912F910F906F
:101250000BBE0F900FBE0F901F901895362F90E089
:10126000FC01E853FE4F4491FC01EE57FE4F2491E0
:10127000FC01E45CFE4F9491992309F46CC0442373
:1012800009F455C050E0FA013197E231F10508F058
:101290004EC08827EE58FF4F8F4F0C944B1A809109
:1012A00080008F7707C0809180008F7D03C0809180
:1012B0008000877F809380003AC084B58F7702C01A
:1012C00084B58F7D84BD33C08091B0008F7703C01B
:1012D0008091B0008F7D8093B00029C080919000F4
:1012E0008F7707C0809190008F7D03C08091900020
:1012F000877F809390001BC08091A0008F7707C0EC
:101300008091A0008F7D03C08091A000877F809393
:10131000A0000DC0809120018F7707C0809120012F
:101320008F7D03C080912001877F80932001E92F6A
:10133000F0E0EE0FFF1FE85FFE4FA591B4919FB75D
:10134000F894311104C08C912095282302C0EC91AF
:101350002E2B2C939FBF08953FB7F8948091BD0624
:101360009091BE06A091BF06B091C00626B5A89B7D
:1013700005C02F3F19F00196A11DB11D3FBFBA2F27
:10138000A92F982F8827820F911DA11DB11DBC0187
:10139000CD0142E0660F771F881F991F4A95D1F74C
:1013A00008952FB7F8946091B9067091BA068091AC
:1013B000BB069091BC062FBF08951F920F920FB6E7
:1013C0000F9211242F933F938F939F93AF93BF93CB
:1013D0008091B9069091BA06A091BB06B091BC0667
:1013E0003091B80623E0230F2D3720F40196A11D7C
:1013F000B11D05C026E8230F0296A11DB11D209343
:10140000B8068093B9069093BA06A093BB06B09332
:10141000BC068091BD069091BE06A091BF06B0911A
:10142000C0060196A11DB11D8093BD069093BE0616
:10143000A093BF06B093C006BF91AF919F918F91CB
:101440003F912F910F900FBE0F901F9018950F9303
:101450001F93CF93DF93EC018B016A817B818C8199
:101460009D816817790724F06F5F7F4FCE01B4D854
:10147000F8012081E881F9818A819B81E80FF91FB9
:1014800020838A819B8101969B838A83DF91CF9100
:101490001F910F9108950F931F93CF93DF93DC015A
:1014A00097960D911C91989740E050E020E030E035
:1014B000201731079CF4EC01EDA1FEA1E40FF51F0C
:1014C000D181DB011196CC911197DC130AC0F28116
:1014D0001296EC91FE1305C0C90108C08FEE9FEF74
:1014E00005C02F5F3F4F435F5F4FE2CFDF91CF914A
:1014F0001F910F910895DC011B96ED91FC911C97B3
:1015000077FF03C0848595850895660F771F660F62
:10151000771F0480F581E02DE60FF71F828193810C
:1015200002978A30910540F4FC01E65FFD4F80810F
:10153000082E000C990B089589EF9FEF08958F9264
:101540009F92AF92BF92CF92DF92EF92FF920F9352
:101550001F93CF93DF931F921F92CDB7DEB7DC01AD
:101560001C967C936E931B97672B09F4C3C0FA01FA
:101570008C01208191818281FD012083918382836E
:1015800083819481009711F00E94221BD8011B9641
:10159000ED90FC901C97F701868597850E948A1A2A
:1015A000D80114969C938E931397F70182819381AF
:1015B0008130910509F444C00297D1F45801F5E057
:1015C000AF0EB11CD7011A966D917C911B97C50186
:1015D000CFDCF801C380D480E12CF12CD8011B961C
:1015E000ED91FC911C9782859385E816F9061CF015
:1015F00080E090E06CC0DA82C982BE016F5F7F4FED
:10160000C5014BDCD8011B96ED91FC911C97048021
:10161000F581E02D8281938102978A30910540F413
:10162000FC01EA5DFD4F8081082E000C990B02C081
:101630008AEF9FEFC80ED91EBFEFEB1AFB0ACECF81
:101640004801E5E08E0E911CD7011A966D917C91B0
:101650001B97C4018DDCF801A380B480E12CF12C30
:10166000C12CD12CD8011B96ED91FC911C97828541
:101670009385C816D9060CF0BBCFBA82A982BE01E9
:101680006F5F7F4FC40109DCD8011B96ED91FC917F
:101690001C970480F581E02DEE0DFF1D8281938162
:1016A00002978A30910540F4FC01EA5DFD4F80818C
:1016B000082E000C990B02C08AEF9FEFA80EB91EEE
:1016C000BFEFCB1ADB0AE4E0EE0EF11CCBCFD80162
:1016D0001B96ED91FC911C97268537858217930701
:1016E0004CF41396ED91FC911497E80FF91F1082BA
:1016F0000196EDCF0F900F90DF91CF911F910F9139
:10170000FF90EF90DF90CF90BF90AF909F908F9021
:101710000895CF93DF93EC018B819C81009721F09A
:101720000E94221B1C821B828D819E81009721F0CA
:10173000DF91CF910C94221BDF91CF910895FC0192
:10174000118E128E138E148E1082148A158A168AA8
:10175000178A108E158E08958F929F92AF92BF9226
:10176000CF92DF92EF92FF920F931F93CF93DF936D
:101770004C01FB0181E0858FD40191960D911C9164
:10178000929780E090E020E030E0201731071CF5D0
:10179000E401AF8DB8A1A80FB91FAD015F016D01C4
:1017A000D4E1CD0ED11CEA01F990AE01E501E9903A
:1017B0005E01FE100CC0F11007C08EE101900D9289
:1017C0008A95E1F7C90192C04C155D0561F72F5F5D
:1017D0003F4F4E96DACF7F01E4018BA19CA1081701
:1017E00019070CF46BC098012F5F3F4F82179307C6
:1017F0000CF064C03CA32BA3AF8CB8A0A114B1041F
:10180000E1F1213464E0360738F44EE1429FC00133
:10181000439F900D112402C08FEF9FEF0E948A1A00
:101820004C016C010F3F8FEF180741F0C60187DFB5
:10183000AEE1CA0ED11C01501109F4CF8F8E98A2CF
:10184000C50120E030E049A15AA1241735078CF4E6
:10185000AC014A195B09AF8DB8A1A40FB51F4EE1C9
:10186000FC0101900D924A95E1F72F5F3F4F4E9694
:10187000EACFC5010E94221B21C01AA219A221345D
:10188000B4E03B0738F44EE1429FC001439F900D06
:10189000112402C08FEF9FEF0E948A1A5C016C0135
:1018A0000F3F6FEF160741F0C60149DF8EE1C80E0A
:1018B000D11C01501109F4CFAF8EB8A249A15AA191
:1018C0008EE1849F9001859F300D1124AF8DB8A1CA
:1018D000A20FB31FF70101900D928A95E1F789A13C
:1018E0009AA19C012F5F3F4F3AA329A3DF91CF918B
:1018F0001F910F91FF90EF90DF90CF90BF90AF902E
:101900009F908F900895CF92DF92EF92FF920F9366
:101910001F93CF93DF936C017A018B01C0E0D0E07D
:10192000CE15DF0581F0D8016D918D01D601ED91C5
:10193000FC910190F081E02DC6011995892B11F0E1
:101940002196EECF7E01C701DF91CF911F910F91BC
:10195000FF90EF90DF90CF900895EF92FF920F935A
:101960001F93CF93DF93EC018B01E090DF05F090A4
:10197000E005B701600F711F8091E1059091E205CC
:101980008617970724F48DED95E00E94EC02FE0186
:10199000EC1AFD0ACF018C1B9D0B80179107ACF44C
:1019A000C7018E0F9F1FA091DD05B091DE05A80F26
:1019B000B91F81918C938091DF059091E00501968C
:1019C0009093E0058093DF05E5CFDF91CF911F91E4
:1019D0000F91FF90EF9008950E94AB1BBF92CF92A2
:1019E000DF92EF92FF920F931F93CF93DF93CDB7C8
:1019F000DEB728970FB6F894DEBF0FBECDBFDC016F
:101A00001B96ED91FC911C979B01220F331F220F17
:101A1000331F0480F581E02DE20FF31F2281338113
:101A2000225031092A30310508F0A1C0FC01D9014A
:101A3000A65FBD4F8C91823069F1C4F4813009F00A
:101A400096C0660F771F0580F681E02DE60FF71F21
:101A50000190F081E02D80818983BE016F5F7F4F0F
:101A60008DED95E0F4DC81E090E083C0843051F1AD
:101A7000883009F07CC0660F771F0580F681E02D65
:101A8000E60FF71FCE0101966C01E12CF12CB82E68
:101A90001D2D41C0660F771F0580F681E02DE60FF2
:101AA000F71FA081B1818C9189830190F081E02D95
:101AB00081818A8362E070E0CE0101964EDF82E090
:101AC00090E057C0660F771F0580F681E02D7F01FB
:101AD000E60EF71EDE01119620E030E0CD01F701A1
:101AE00040815181FA014081518162817381022ECE
:101AF00004C076956795579547950A94D2F74D930C
:101B0000285F3F4F2032310551F764E070E025DF58
:101B100084E090E02EC0A081B1812C9111963C917F
:101B2000119712964C91129713965C9113971496F5
:101B30006C91149715967C91159716968C91169723
:101B400017969C910E2D0E946E1AD6012D936D0151
:101B5000B8E0EB0EF11C80E4E816F104E1F668E071
:101B600070E08B2D912FF9DE88E090E002C086EFC7
:101B70009FEF28960FB6F894DEBF0FBECDBFDF9162
:101B8000CF911F910F91FF90EF90DF90CF90BF907A
:101B90000895AF92BF92CF92DF92EF92FF920F9390
:101BA0001F93CF93DF93EC017983688381E090E00A
:101BB0009B838A831D821C821F821E82198618863F
:101BC0001D861C861F861E868A01E12CF12CD801F9
:101BD00012968D919C911397892B19F4FB86EA86B6
:101BE000B8C0CE80DF8028853985C216D3060CF4B4
:101BF0005FC0C6010196281739070CF059C09987B4
:101C00008887AC80BD80A114B10491F1813CBFE113
:101C10009B0728F4880F991F880F991F02C08FEF28
:101C20009FEF0E948A1A9601FC01215031092E3F34
:101C30004FEF340731F011821082138212823496F2
:101C4000F4CF8C839D83D501FC0180E090E08C155E
:101C50009D0554F44D915D916D917D91419351930A
:101C6000619371930196F3CFC5010E94221B20C09E
:101C70001F821E82813CAFE19A0728F4880F991FCA
:101C8000880F991F02C08FEF9FEF0E948A1AFC01F4
:101C9000B1E0CB1AD1082EEFC2162FEFD20631F0E9
:101CA00011821082138212823496F2CF8C839D832C
:101CB0008E819F819C01220F331F220F331FEC81E5
:101CC000FD81E20FF31FD8014D915D916D917D91E2
:101CD0008D01408351836283738301969F838E833A
:101CE000FD0132978081918102978A30910540F4FD
:101CF000FC01E65FFD4F2081022E000C330B02C079
:101D000029EF3FEF4C855D85240F351F3D872C87DC
:101D10008A30910540F4FC01EA5DFD4F8081082E78
:101D2000000C990B02C08AEF9FEF2E853F85820F32
:101D3000931F9F878E87BFEFEB1AFB0AE114E1E048
:101D4000FE0609F044CF1D861C861F861E861B8654
:101D50001A86DF91CF911F910F91FF90EF90DF9046
:101D6000CF90BF90AF900895FC01A089B1898C916C
:101D7000A689B78982FD0FC09C91818D8F5F8F737B
:101D8000228D821749F0218DDF01A20FB11D5D96D2
:101D90009C93818F08958C9108958F929F92AF921A
:101DA000BF92EF92FF920F931F93CF93DF93CDB724
:101DB000DEB76E970FB6F894DEBF0FBECDBF7C01C5
:101DC0008B0149015A01CE010196B9DCD801139665
:101DD000FE01319680E090E0BC016D5F7F4F2D9158
:101DE000222319F083319105A9F4E1E0F0E0EC0F32
:101DF000FD1FE80FF91F1082F801E60FF71F818120
:101E00008D8BFB013296E00FF11FDE015696CE015D
:101E10004A9603C021930196DFCF21912D938A1713
:101E20009B07D9F76A5F7F4F8A8E9B8EAC8EBD8EE3
:101E3000F80180E09191890F9F01201B310B26173B
:101E40003707C4F3F801E60FF71F9081891309C023
:101E50008EE1FE013196D70101900D928A95E1F74E
:101E600002C0C7016CDCC7016E960FB6F894DEBFE6
:101E70000FBECDBFDF91CF911F910F91FF90EF90DB
:101E8000BF90AF909F908F900895CF93DF93CDB781
:101E9000DEB7A1970FB6F894DEBF0FBECDBF789422
:101EA00084B5826084BD84B5816084BD85B582605F
:101EB00085BD85B5816085BD80916E008160809310
:101EC0006E00109281008091810082608093810079
:101ED0008091810081608093810080918000816089
:101EE000809380008091B10084608093B1008091E4
:101EF000B00081608093B0008091910082608093F7
:101F00009100809191008160809391008091900078
:101F10008160809390008091A10082608093A100F5
:101F20008091A10081608093A1008091A0008160D8
:101F30008093A00080912101826080932101809193
:101F40002101816080932101809120018160809333
:101F5000200180917A00846080937A0080917A00D9
:101F6000826080937A0080917A00816080937A0009
:101F700080917A00806880937A001092C10010925C
:101F8000BE051092BF051092C0051092C1051092B7
:101F90007E0510927F05109280051092810501DA6E
:101FA0006B017C014B015C0128EB820E2BE0921E41
:101FB000A11CB11CF6D96C157D058E059F0528F076
:101FC00086169706A806B906A8F7C6D94B015C0184
:101FD000E0EDCE2EE7E0DE2EE12CF12CBDD9DC01C8
:101FE000CB0188199909AA09BB09883E9340A1052C
:101FF000B105A0F331E0C31AD108E108F10848EEB9
:10200000840E43E0941EA11CB11CC114D104E10450
:10201000F10421F740E052EC61E070E08FED94E0D4
:102020000E943B01BED960937E0570937F0580932B
:1020300080059093810580E392E00E94CD02B1D9A2
:102040006B017C014B015C018AE0880E911CA11C94
:10205000B11CA7D96C157D058E059F0528F0861645
:102060009706A806B906A8F711E01093920544E672
:1020700056E061E087E10E94EA04609333067093C2
:1020800034068093350644E656E062E087E10E941C
:10209000EA0460933606709337068093380640EA68
:1020A00056E061E089E10E94EA0460933006709393
:1020B0003106809332068091EF05811131C082E0B4
:1020C00090E09093D6058093D5051093EF0540E8F6
:1020D00055E260E070E085EA93E00E943B01809168
:1020E000D5059091D6058130910571F03CF4892B8E
:1020F000B9F48FED94E00E94030706C08230910589
:1021000039F0039749F00CC082E494E00E94030781
:1021100085EA93E00E94030788E093E00E940307AA
:1021200040E052EC61E070E08FED94E00E943B01F2
:1021300063E376E08CE196E00E94C80166E376E016
:1021400088E096E00E94C8018091300690913106A7
:10215000A09132068F8F98A3A9A360E070E0CE0112
:102160004F960E949E019093070680930606EFE823
:10217000F1E02491E9E4F1E08491882399F090E082
:10218000880F991FFC01EE5DFE4FA591B491FC01F3
:10219000E85FFE4F859194918FB7F894EC91E22B14
:1021A000EC938FBF62E3262E312C412C512CF9D8B1
:1021B000672B682B692B39F4F4D8623071058105DF
:1021C000910508F4DFC0EDD80091040310910503D8
:1021D0002091060330910703601771078207930768
:1021E00040F4609304037093050380930603909377
:1021F0000703009104031091050320910603309119
:1022000007036B017C01C01AD10AE20AF30A9701A5
:1022100086010A3F11052105310508F4B3C060931A
:10222000040370930503809306039093070324EF40
:1022300031E040E050E020938A0530938B054093D5
:102240008C0550938D0510928E0510928F0510927B
:102250009005109291058091820590918305A0913F
:102260008405B09185058093860590938705A0939A
:102270008805B093890595D860938205709383058E
:1022800080938405909385058CD860937E05709328
:102290007F05809380059093810583D86B017C0135
:1022A00082E492E00E94CD024AE061E070E080E0CA
:1022B00090E00E948D0289E492E00E94CD024AE003
:1022C000C701B6010E948D028BE492E00E94CD020C
:1022D0008091820590918305A0918405B091850538
:1022E000A7019601281B390B4A0B5B0BCA01B901E8
:1022F0004AE00E948D028BE492E00E94CD02809120
:10230000820590918305A0918405B0918505009187
:102310008605109187052091880530918905BC01BB
:10232000CD01601B710B820B930B4AE00E948D0262
:102330008DE492E00E94CD0234D84AE00E948D02E2
:102340008FE492E00E947B028FE392E00E947B0286
:1023500028D86B017C014B015C0135E0830E911C98
:10236000A11CB11C1ED86C157D058E059F0508F0BB
:10237000ABC217D860938205709383058093840560
:10238000909385058091CC059091CD05A091CE05C7
:10239000B091CF05892B8A2B8B2BE9F002D80091C5
:1023A000C8051091C9052091CA053091CB05DC0103
:1023B000CB01801B910BA20BB30B0091CC051091AC
:1023C000CD052091CE053091CF05081719072A07B2
:1023D0003B0708F480C28091EF05882331F080919B
:1023E000040690910506892B29F48CEE9FEF0E943C
:1023F000A303E3C10E94CE0297FF03C08BEE9FEFC1
:10240000B3C18091D0059091D105892B99F40E9498
:10241000CE021816190674F41092DA051092D90536
:102420001092FB051092FA0581E090E09093D1059F
:102430008093D0058091D0059091D105019741F00E
:102440008091D0059091D105029709F0ECC091C020
:102450000E94CE02181619060CF0AFC18091F50546
:10246000882309F441C0E091D705F091D805818116
:102470008083E091D705F091D80582818183009116
:10248000D7051091D8058091EF058823E9F0809158
:10249000D5059091D6058130910571F02CF4892BEA
:1024A00099F48FED94E00DC08230910541F00397CF
:1024B00059F488E093E005C082E494E002C085EA24
:1024C00093E00E94430601C080E0D80112968C93ED
:1024D0008091FA059091FB0501969093FB058093FE
:1024E000FA051092F50513C00E94CE0203970CF472
:1024F00064C183E090E00E9424032091FA053091AA
:10250000FB05820F931F9093FB058093FA05E091E2
:10251000D705F091D80580818093F0058181809363
:10252000F10582818093F20560EF75E080910406E9
:10253000909105060E944B0A97FFE2C185EF9FEF3D
:102540000E94A303A1E0A093F5058091D30590918B
:10255000D40501969093D4058093D3050E94CE02B2
:10256000181619060CF06CCF8091F505811176CF05
:1025700067CF0E94CE0202970CF41FC182E090E068
:102580000E9424032091FA053091FB05820F931FCE
:102590009093FB058093FA05E091D705F091D8055B
:1025A000038114811093F4050093F3050150110980
:1025B000E0900406F090050660EF75E0C7010E9408
:1025C0004B0A97FD0EC04DE0489F9001499F300D8A
:1025D0001124F70185A196A1B801820F931F0E94D3
:1025E0007B0A9093F9058093F8051816190684F074
:1025F0000E94A3038091D3059091D40501969093F6
:10260000D4058093D3051092D1051092D005D5C082
:1026100001969093F9058093F80583E090E09093FC
:10262000D1058093D0058091D0059091D105039775
:1026300009F0C3C00E94CE022091F8053091F9053F
:10264000821793070CF4B9C0C9010E94240320919A
:10265000FA053091FB05820F931F9093FB05809341
:10266000FA05C0900406D09005060091D705109198
:10267000D805D8018C918F3F91F511968C918130BE
:1026800019F08230D1F067C0F801F280F1E0FF125A
:1026900062C020E030E0A901B801CE0101967DDBE7
:1026A000BE016F5F7F4FC60157D897FD54C0D6015A
:1026B0005E96FC9280E090E050C0F801828181300B
:1026C00009F049C020E030E0A901B801CE0101962F
:1026D00064DBBE016F5F7F4FC6013ED83EC01982EA
:1026E0001A821B82D8018C91898311968C91119743
:1026F0008A8312968C918B83BE016F5F7F4FC601D8
:102700000E944B0A97FD29C04DE0489F9001499FC8
:10271000300D1124F601E5A0F6A0E20EF31E609044
:10272000D9057090DA05F5E06F16710474F0D801E0
:1027300011969C911197F7018181981309C0129607
:102740009C918281981304C0E2C084EF9FEF05C082
:1027500085EF9FEF02C08FEF9FEF1092D10510928F
:10276000D0051816190664F00E94A3038091D305C2
:102770009091D40501969093D4058093D3051DC004
:10278000B1E0B093D2058091F105909131068913A3
:1027900007C02091F20590913206291709F416C15D
:1027A00090913406891307C02091F2059091350667
:1027B000291709F414C11092D2058091F105909166
:1027C000C305891391C22091F2059091C405291384
:1027D0008BC204C08FE392E00E947B024091E5052A
:1027E0005091E6054115510509F46BC00CF45DC02C
:1027F0002091EB053091EC05C901880F991FE091FC
:10280000E305F091E405E80FF91F808191814150C3
:1028100051095093E6054093E5052F5F3F4F3093F4
:10282000EC052093EB054091E7055091E80524174E
:10283000350724F01092EC051092EB058F3EEFEF78
:102840009E0709F15CF4449681F52092CC05309204
:10285000CD054092CE055092CF0533C0813F3FEF6A
:102860009307B1F00B9609F580EDC82E87E0D82EBE
:10287000E12CF12CC092CC05D092CD05E092CE0592
:10288000F092CF051EC088EE93E0A0E0B0E011C04A
:1028900028EC30E040E050E02093CC053093CD05AB
:1028A0004093CE055093CF050CC088E893E1A0E09B
:1028B000B0E08093CC059093CD05A093CE05B09366
:1028C000CF050E94240773CC86169706A806B90682
:1028D00008F048CD4ECD0E94D1096093C805709391
:1028E000C9058093CA059093CB056091C50591E019
:1028F00069276093C5058091C6050E942E096BCD9E
:10290000E2E0F0E0F093D105E093D00527CED801C6
:102910001396CD90DC901497B1E0CB1AD1080384C4
:10292000F485E02D828593858C159D050CF44BC0B4
:10293000B601C7010E947B0A5C01F6E0AF0EB11C34
:102940006A147B04C4F1F80120E00596AF01401B36
:10295000510B481759071CF43191230FF7CFF80199
:10296000E80FF91F8081281329C0D7FE1BC000E0A3
:1029700010E055E0C52ED12CD7011B96ED91FC91AE
:102980001C978285938508171907DCF4A801B60106
:10299000C7010E94050497FDE0CEC80ED91E0F5F47
:1029A0001F4FEACFA60165E070E0C7010E94050451
:1029B00097FDD3CE06C082EF9FEFCFCE81EF9FEF82
:1029C000CCCEC501CACE83EF9FEFC7CEE0910606FD
:1029D000F091070660818DE00E942E09ECCEE09117
:1029E0000606F09107069081913009F0E4CEC09080
:1029F000F305D090F4057601E1E0EE1AF10890912C
:102A00003706891729F08091EF05811181C087C0B1
:102A100060EF75E089E396E00E944B0A8C0197FD18
:102A2000F2CF66E376E089E396E00E944B0A97FDD9
:102A3000EACF20915E0630915F064DE0489FD001BD
:102A4000499FB00D1124A20FB31F1B96ED91FC916D
:102A50001C97F7FE03C08685978517C00480F58113
:102A6000E02DC701880F991F880F991FE80FF91FE4
:102A70008281938102978A30910528F6FC01EA5DF4
:102A8000FD4F8081082E000C990B181619060CF0CA
:102A9000BACF4DE0409FF001419FF00D1124E20FAD
:102AA000F31F238134812115310569F0F7FC0EC035
:102AB0000580F681E02D9701220F331FE20FF31FEF
:102AC0004081518104C040E050E001C0A90113964B
:102AD0002D913C9114972115310571F0F7FC0EC032
:102AE0001596ED91FC9116979701220F331FE20F77
:102AF000F31F2081318102C020E030E0FA01D901CA
:102B0000840F951F21912D938E179F07D9F77BCFA7
:102B1000A0900406B0900506A114B10419F48CEE3F
:102B20009FEFDFC063E376E0C5010E944B0A97FD8B
:102B3000D8C04DE0489F9001499F300D1124D50128
:102B400095960D911C919697020F131F1092E00518
:102B50001092DF05B701C8010E947B0ABC016A5FC1
:102B60007F4F8DED95E00E94EC02F8018081898312
:102B7000BE016F5F7F4F8DED95E00E94270AD8015F
:102B800011968C918983BE016F5F7F4F8DED95E02B
:102B90000E94270AF80182818983BE016F5F7F4FFF
:102BA0008DED95E00E94270AC982BE016F5F7F4FBD
:102BB0008DED95E00E94270AD982BE016F5F7F4F9D
:102BC0008DED95E00E94270AF7FE21C0E12CF12C43
:102BD000D8011B96ED91FC911C9782859385E81690
:102BE000F9065CF019824091DF055091E0052091D3
:102BF000DD053091DE05F90111C0B701C8010E9461
:102C0000EE0C97FD21C0BFEFEB1AFB0AE1CFB70135
:102C1000C8010E94EE0C97FFE5CF16C0CF01821BC2
:102C2000930B841795072CF481919981890F8983DF
:102C3000F5CFBE016F5F7F4F8DED95E00E94270AB3
:102C40008091DF059091E005181619060CF049C037
:102C50008091EF058823E9F18091D5059091D60503
:102C600081309105F1F06CF4892B99F54091DF05E5
:102C70005091E0056091DD057091DE058FED94E0E7
:102C800025C082309105C1F0039719F54091DF0509
:102C90005091E0056091DD057091DE0588E093E0DC
:102CA00015C04091DF055091E0056091DD05709100
:102CB000DE0582E494E00AC04091DF055091E00512
:102CC0006091DD057091DE0585EA93E00E94830C3A
:102CD00002C08FEF9FEF9093FD058093FC0597FF57
:102CE0006ACD0E94A30367CD9091F2052091F00573
:102CF0002093C2058093C3059093C4058DE592E0AF
:102D00000E94CD02C090D905D090DA050D2C000CA0
:102D1000EE08FF08F7FE0EC06DE28FED94E00E9412
:102D2000B70666277727CB016C197D098E099F09A5
:102D30004AE003C04AE0C701B6010E948D0286E561
:102D400092E00E947B028FE392E00E947B0200E00F
:102D500010E08091D9059091DA05081719070CF059
:102D600039CDE091D705F091D805E00FF11F6081D2
:102D700070E080E090E040E10E948D0281E792E007
:102D80000E94CD020F5F1F4FE4CF0F931F93CF938D
:102D9000DF9310920B0310920A0348EE53E060E0B9
:102DA00070E040930C0350930D0360930E037093F7
:102DB0000F0388E192E0909309038093080325E3D1
:102DC00031E0309315032093140324E331E0309372
:102DD00017032093160320E331E030931903209367
:102DE000180321E331E030931B0320931A0322E3FD
:102DF00031E030931D0320931C0326E331E0309330
:102E00001F0320931E03109221031092220310929D
:102E10002303109224031092A8031092A703409357
:102E2000A9035093AA036093AB037093AC039093F0
:102E3000A6038093A50325ED30E03093B2032093E1
:102E4000B10324ED30E03093B4032093B30320EDBD
:102E500030E03093B6032093B50321ED30E030939A
:102E6000B8032093B70322ED30E03093BA032093E8
:102E7000B90326ED30E03093BC032093BB031092DE
:102E8000BE031092BF031092C0031092C1031092B0
:102E900045041092440440934604509347046093C1
:102EA00048047093490490934304809342042DECAA
:102EB00030E030934F0420934E042CEC30E03093FC
:102EC00051042093500428EC30E0309353042093B5
:102ED000520429EC30E030935504209354042AEC3A
:102EE00030E030935704209356042EEC30E03093BA
:102EF00059042093580410925B0410925C041092C1
:102F00005D0410925E041092E2041092E10440937A
:102F1000E3045093E4046093E5047093E604909313
:102F2000E0048093DF0485EC90E09093EC048093C0
:102F3000EB0484EC90E09093EE048093ED0480EC3D
:102F400090E09093F0048093EF0481EC90E09093F4
:102F5000F2048093F10482EC90E09093F404809367
:102F6000F30486EC90E09093F6048093F5041092BD
:102F7000F8041092F9041092FA041092FB041092D3
:102F80008205109283051092840510928505109297
:102F90008605109287051092880510928905109277
:102FA0008A0510928B0510928C0510928D05109257
:102FB0008E0510928F05109290051092910583E76F
:102FC00092E09093B1068093B00603E010E0109376
:102FD000B3060093B206C1E4D2E0D093B506C09325
:102FE000B4061092B7061092B60640EB56E068E7BA
:102FF00072E080EA96E00E94C90D8BE892E090931F
:1030000075068093740682E090E090937706809333
:10301000760685E992E0909379068093780610937E
:103020007B0600937A0680EA92E090937D06809377
:103030007C0684E090E090937F0680937E068BEA86
:1030400092E0909381068093800685E090E09093D3
:1030500083068093820687EB92E0909385068093A7
:10306000840686E090E0909387068093860682EC43
:1030700092E0909389068093880687E090E0909391
:103080008B0680938A068EEC92E090938D06809357
:103090008C0688E090E090938F0680938E0689EDF1
:1030A00092E0909391068093900689E090E090934F
:1030B00093068093920685EE92E090939506809316
:1030C00094068AE090E0909397068093960680EFAE
:1030D00092E090939906809398068BE090E090930D
:1030E0009B0680939A06D0939D06C0939C061092EF
:1030F0009F0610929E0644E756E06FE772E084E672
:1031000096E00E94C90D89E396E00E949F0B109201
:1031100059061092580610925B0610925A061092A9
:103120005D0610925C0610925F0610925E06109289
:1031300061061092600682E080934D06309106028F
:1031400020910702909108028091090230934E0667
:1031500020934F069093500680935106ACEFB2E057
:10316000E9E3F6E080E090E02D91222319F083312D
:103170009105A9F4FC01E75CF94F10821092570603
:10318000C3E0D0E0D0936306C093620689E290E08A
:10319000C1D1DC01CD93DD93FC01879603C021935F
:1031A0000196E2CF12821382148210861782128651
:1031B00011861486138616821582168615863D960C
:1031C000E817F90779F7B0935F06A0935E061092AF
:1031D0003606109237061092380610923306109277
:1031E0003406109235061092300610923106109275
:1031F000320610921D0610921C0610921F061092A5
:103200001E0610922106109220061092230610929C
:10321000220610922506109224061092270610927C
:103220002606109229061092280610922B0610925C
:103230002A0610922D0610922C0610922F0610923C
:103240002E06109209061092080610920B06109294
:103250000A0610920D0610920C0610920F0610929C
:103260000E0610921106109210061092130610927C
:10327000120610921506109214061092170610925C
:103280001606109219061092180610921B0610923C
:103290001A0610920706109206061092D105109297
:1032A000D0051092D2051092D4051092D305109239
:1032B000D8051092D7051092DA051092D905109210
:1032C000DC051092DB051092DE051092DD051092F0
:1032D000E0051092DF051092E2051092E1051092D0
:1032E000EE051092ED0584E190E014D19093E40591
:1032F0008093E305892B91F01092E6051092E50585
:103300001092EA051092E9051092EC051092EB0577
:103310008AE090E09093E8058093E7051092EF052E
:103320001092F0051092F1051092F2051092F50539
:103330001092F7051092F6051092F9051092F80513
:103340001092FB051092FA051092FD051092FC05F3
:103350001092FF051092FE051092010610920006D1
:10336000109203061092020689E396E090930506F8
:10337000809304061092C5058DE090E09093C705F8
:103380008093C6051092CC051092CD051092CE0503
:103390001092CF050E94D1096093C8057093C905AA
:1033A0008093CA059093CB051092C2051092C30575
:1033B0001092C405DF91CF911F910F910895CF9383
:1033C000DF938EEF95E00E94DE078091E3059091F8
:1033D000E405009709F036D18091DD059091DE0576
:1033E000009709F02FD18091D7059091D8050097CB
:1033F00009F028D1C0915E06D0915F062097D9F0E0
:10340000FE013297208131814DE0429FC001439FF0
:10341000900D1124C80FD91F9E012D9780915E0633
:1034200090915F068217930721F0CE010E94890BCD
:10343000F3CF029707D188E596E00E94DE0788E681
:1034400096E00E94DE0784EA96E0DF91CF910C942B
:10345000DE07A1E21A2EAA1BBB1BFD010DC0AA1F8D
:10346000BB1FEE1FFF1FA217B307E407F50720F0ED
:10347000A21BB30BE40BF50B661F771F881F991F68
:103480001A9469F760957095809590959B01AC01B1
:10349000BD01CF010895EE0FFF1F881F8BBF07905E
:1034A000F691E02D19940F93083090F0982F872F04
:1034B000762F652F542F432F322F22270850F4CF19
:1034C000220F331F441F551F661F771F881F991F28
:1034D0000A95B2F70F91089597FB10F8169400081B
:1034E0000F93083098F00850232F342F452F562F74
:1034F000672F782F892F902DF4CF05949795879576
:103500007795679557954795379527950A95AAF723
:103510000F9108950F931F93CF93DF9382309105FE
:1035200010F482E090E0E091C306F091C40620E040
:1035300030E0A0E0B0E0309719F140815181028184
:10354000138148175907C8F08417950769F4109735
:1035500031F012960C93129713961C9327C0009388
:10356000C3061093C40622C02115310519F0421775
:10357000530718F49A01BD01EF01DF01F801DBCF19
:1035800021153105F9F0281B390B2430310580F461
:103590008A819B816115710521F0FB0193838283F0
:1035A00004C09093C4068093C306FE01329644C0C3
:1035B000FE01E20FF31F8193919322503109398369
:1035C00028833AC02091C1063091C206232B41F4D2
:1035D00020910202309103023093C2062093C1066B
:1035E00020910002309101022115310541F42DB7DF
:1035F0003EB74091040250910502241B350BE09127
:10360000C106F091C206E217F307A0F42E1B3F0B90
:103610002817390778F0AC014E5F5F4F2417350744
:1036200048F04E0F5F1F5093C2064093C10681932E
:10363000919302C0E0E0F0E0CF01DF91CF911F91C4
:103640000F910895CF93DF93009709F481C0FC0197
:10365000329713821282A091C306B091C4061097CC
:1036600081F420813181820F931F2091C106309116
:10367000C2062817390751F5F093C206E093C10638
:1036800067C0ED0120E030E0CE17DF0740F44A814B
:103690005B819E0141155105F1F0EA01F5CFD3831D
:1036A000C28340815181840F951FC817D90759F4EF
:1036B00088819981840F951F0296918380838A81E6
:1036C0009B81938382832115310529F4F093C406ED
:1036D000E093C3063DC0E901FB83EA834991599118
:1036E000C40FD51FEC17FD0761F480819181840F11
:1036F000951F0296E90199838883828193819B8338
:103700008A83E0E0F0E012968D919C9113970097E8
:1037100019F0FD01DC01F7CF8D919C9111979D016E
:103720002E5F3F4F820F931F2091C1063091C2063A
:103730002817390769F4309729F41092C4061092BB
:10374000C30602C013821282B093C206A093C106C0
:10375000DF91CF91089581E090E0F89400C011E0EE
:10376000C8E0D1E000E005C0802FFE0194DE219684
:10377000011DC930D10780E00807B1F7F894FFCFE9
:103780000000C506800001040000010102020404DB
:103790000808040800000000B706830C340603077D
:1037A00065064306570601010202040408080404E2
:1037B000564D4450565F317C315F564D4450560D46
:1037C0000A00564D4450455F003A323A007C005F93
:1037D000564D44504500206279746573004461740D
:1037E0006162756666657220726563656976656497
:1037F0003A20006D6F64650041726475696E6F54A4
:103800006573742053747275637400746573745FA8
:10381000696E743800746573745F75696E7438000E
:10382000746573745F696E74313600746573745FA8
:1038300075696E74313600746573745F696E7433C4
:103840003200746573745F75696E74333200746529
:1038500073745F696E74363400746573745F756970
:103860006E74363400746573745F666C6F617400D7
:10387000746573745F646F75626C65004172647522
:04388000696E6F00FE
:020000023000CC
:10E000000D9489F10D94B2F10D94B2F10D94B2F129
:10E010000D94B2F10D94B2F10D94B2F10D94B2F1F0
:10E020000D94B2F10D94B2F10D94B2F10D94B2F1E0
:10E030000D94B2F10D94B2F10D94B2F10D94B2F1D0
:10E040000D94B2F10D94B2F10D94B2F10D94B2F1C0
:10E050000D94B2F10D94B2F10D94B2F10D94B2F1B0
:10E060000D94B2F10D94B2F10D94B2F10D94B2F1A0
:10E070000D94B2F10D94B2F10D94B2F10D94B2F190
:10E080000D94B2F10D94B2F10D94B2F10D94B2F180
:10E090000D94B2F10D94B2F10D94B2F10D94B2F170
:10E0A0000D94B2F10D94B2F10D94B2F10D94B2F160
:10E0B0000D94B2F10D94B2F10D94B2F10D94B2F150
:10E0C0000D94B2F10D94B2F10D94B2F10D94B2F140
:10E0D0000D94B2F10D94B2F10D94B2F10D94B2F130
:10E0E0000D94B2F141546D656761323536300041AF
:10E0F000726475696E6F206578706C6F72657220DE
:10E1000073746B3530305632206279204D4C530099
:10E11000426F6F746C6F616465723E004875683F52
:10E1200000436F6D70696C6564206F6E203D200048
:10E130004350552054797065202020203D20005FF9
:10E140005F4156525F415243485F5F3D2000415658
:10E1500052204C696243205665723D20004743437C
:10E160002056657273696F6E203D20004350552024
:10E1700049442020202020203D20004C6F7720663D
:10E18000757365202020203D20004869676820665F
:10E190007573652020203D200045787420667573D6
:10E1A00065202020203D20004C6F636B2066757336
:10E1B000652020203D20004D617220203720323024
:10E1C000313300312E362E3800342E332E350056A2
:10E1D00023202020414444522020206F7020636F70
:10E1E00064652020202020696E73747275637469E1
:10E1F0006F6E2061646472202020496E74657272B3
:10E20000757074006E6F20766563746F7200726A49
:10E210006D702020006A6D70200057686174207056
:10E220006F72743A00506F7274206E6F7420737541
:10E2300070706F72746564004D7573742062652030
:10E2400061206C6574746572002000577269747483
:10E25000696E672045450052656164696E672045B7
:10E26000450045452065727220636E743D00504F35
:10E27000525400303D5A65726F2061646472003FF1
:10E280003D43505520737461747300403D454550C3
:10E29000524F4D207465737400423D426C696E6B41
:10E2A000204C454400453D44756D70204545505215
:10E2B0004F4D00463D44756D7020464C415348001B
:10E2C000483D48656C70004C3D4C69737420492F83
:10E2D0004F20506F72747300513D51756974005234
:10E2E0003D44756D702052414D00563D73686F7707
:10E2F00020696E7465727275707420566563746FF0
:10E30000727300593D506F727420626C696E6B00BD
:10E310002A0011241FBECFEFD1E2DEBFCDBF01E046
:10E320000CBF12E0A0E0B2E0EEE1FDEF03E00BBFB6
:10E3300002C007900D92A030B107D9F712E0A0E01B
:10E34000B2E001C01D92AE30B107E1F70F9460F367
:10E350000D948DFE01E20EBF0FEF0DBF11241FBE05
:10E360000D9460F30D9400F020E030E040ED57E0B4
:10E3700005C0FA013197F1F72F5F3F4F2817390792
:10E38000C0F308959C01260F311DC901A0E0B0E043
:10E390002F5F3F4FABBFFC018791882361F08093D3
:10E3A000C6008091C00086FFFCCF8091C0008064D1
:10E3B0008093C000EACF08958DE08093C6008091DD
:10E3C000C00086FFFCCF8091C00080648093C000B5
:10E3D0008AE08093C6008091C00086FFFCCF8091C8
:10E3E000C00080648093C00008950F94C2F10F9420
:10E3F000DCF10895FC019081992359F09093C600B7
:10E400008091C00086FFFCCF8091C0008064809323
:10E41000C0003196992379F70895282F982F929567
:10E420009F70892F805D8A3308F0895F8093C600D2
:10E430008091C00086FFFCCF8091C00080648093F3
:10E44000C000822F8F70982F905D9A3308F0995FEB
:10E450009093C6008091C00086FFFCCF8091C000E1
:10E4600080648093C00008959C01FB01853691056E
:10E470001CF46330710594F0C90164E670E00F94F8
:10E480002EFE605D7F4F6093C6008091C00086FFC6
:10E49000FCCF8091C00080648093C0002B30310598
:10E4A00014F43297B4F0C90164E670E00F942EFEC4
:10E4B0006AE070E00F942EFE605D7F4F6093C600AF
:10E4C0008091C00086FFFCCF8091C0008064809363
:10E4D000C000C9016AE070E00F942EFEC0968093E0
:10E4E000C6008091C00086FFFCCF8091C000806490
:10E4F0008093C00008951F93182F8EE692EE60E07F
:10E500000F94C2F11093C6008091C00086FFFCCF2B
:10E510008091C00080648093C0000F94DCF11F9153
:10E5200008952F923F924F925F926F927F928F92B7
:10E530009F92AF92BF92CF92DF92EF92FF920F9392
:10E540001F93DF93CF93CDB7DEB762970FB6F894E2
:10E55000DEBF0FBECDBF382E622ECA01DB015C01CB
:10E560006D01772420E2222E2E010894411C511CBB
:10E570008BC081E0A81680E0B80681E0C80680E084
:10E58000D80628F0C601AA27BB270F940DF2BB2797
:10E59000AD2D9C2D8B2D0F940DF28A2D0F940DF225
:10E5A0002092C6008091C00086FFFCCF8091C00001
:10E5B00080648093C0009DE29093C6008091C0006B
:10E5C00086FFFCCF8091C00080648093C0002092C1
:10E5D000C6008091C00086FFFCCF8091C00080649F
:10E5E0008093C00019828601750188249924A1E0D6
:10E5F0003A1651F03A1620F0B2E03B1661F409C029
:10E600000BBFF701779007C0C7010F9477FE782EF4
:10E6100002C0F7017080872D0F940DF22092C60082
:10E620008091C00086FFFCCF8091C0008064809301
:10E63000C000872D8052F401EF70F0708F3520F408
:10E64000E40DF51D708204C0E40DF51D8EE280839B
:10E650000894E11CF11C011D111D0894811C911CE2
:10E6600090E18916910409F0C2CF80E190E0A0E02A
:10E67000B0E0A80EB91ECA1EDB1E198AC2010F9493
:10E68000FAF10F94DCF16A94662009F072CF629679
:10E690000FB6F894DEBF0FBECDBFCF91DF911F91B3
:10E6A0000F91FF90EF90DF90CF90BF90AF909F9031
:10E6B0008F907F906F905F904F903F902F90089534
:10E6C0002F923F924F925F926F927F928F929F9282
:10E6D000AF92BF92CF92DF92EF92FF920F931F9370
:10E6E000DF93CF93CDB7DEB7CD53D1400FB6F894BB
:10E6F000DEBF0FBECDBF01E20EBF0FEF0DBF94B75F
:10E70000F894A89514BE80916000886180936000A1
:10E7100010926000789493FF05C0E0910002F091A0
:10E7200001021995279A2F9A8091C00082608093E8
:10E73000C00080E18093C40088E18093C1000000A4
:10E74000EE24FF24870144E0A42EB12CCC24DD2448
:10E7500024C0C5010197F1F70894E11CF11C011DCB
:10E76000111D21E2E2162EE4F20620E0020720E06D
:10E77000120718F031E0C32ED12CC801B70127ECE5
:10E780003BE140E050E00F9441FE611571058105C9
:10E79000910519F485B1805885B98091C00087FD35
:10E7A00003C0C114D104A9F2A6014F5F5F4FC25E3E
:10E7B000DE4F59834883CE51D140C25EDE4F8881FF
:10E7C0009981CE51D140019711F00D9410FEC05D9A
:10E7D000DE4F19821882C053D14060E0C15DDE4F28
:10E7E0001882CF52D14088249924C35DDE4F19820C
:10E7F0001882CD52D140C05EDE4F188219821A8233
:10E800001B82C052D140CE5CDE4F188219821A8220
:10E810001B82C253D140EE24FF2487010BBFF701B6
:10E8200007911691C45CDE4F19830883CC53D14005
:10E830000D940BFEC25EDE4F28813981CE51D1404E
:10E840002130310509F52091C600C25EDE4F1982E4
:10E850001882CE51D14022C02F5F3F4F4F4F5F4FA4
:10E86000213082E138078AE7480780E0580780F0C6
:10E87000C45CDE4FE881F981CC53D140EF5FFF4F9C
:10E8800019F0EE27FF27099420E030E040E050E047
:10E890008091C00087FFE0CF2091C600C35DDE4FAE
:10E8A00048815981CD52D1404F5F5F4FC35DDE4FEC
:10E8B00059834883CD52D140213209F063C64A3092
:10E8C000510508F05FC60894811C911C53E0851621
:10E8D000910409F059C600E010E018C081E280936D
:10E8E000C6008091C00086FFFCCF8091C00080648C
:10E8F0008093C0002F5F3F4F2931310579F70F9486
:10E90000DCF10F5F1F4F0530110519F020E030E0FA
:10E91000E5CF10920A0210920B0210920C02109294
:10E920000D02109206021092070210920802109235
:10E930000902109202021092030210920402109235
:10E9400005028FEE90EE60E00F94F5F180E191EE1C
:10E9500060E00F94C2F18091C00087FFFCCF9091DE
:10E96000C600903608F09F759032B8F09093C600BC
:10E970008091C00086FFFCCF8091C00080648093AE
:10E98000C000A0E2A093C6008091C00086FFFCCF2B
:10E990008091C00080648093C000983409F4D7C18E
:10E9A0009934B8F4923409F459C1933458F490333B
:10E9B00019F1903308F4E3C59F33A1F1903409F0C5
:10E9C000DEC5BDC0953409F470C1963409F0D7C5D1
:10E9D00098C1923509F42BC2933538F49C3409F46C
:10E9E000F5C1913509F0CBC518C2963509F445C279
:10E9F000993509F0C4C567C483E792EE62E00F94CD
:10EA0000F5F110920602109207021092080210927D
:10EA1000090210920A0210920B0210920C0210923C
:10EA20000D0213C18FE792EE62E00F94F5F18FEEC5
:10EA300090EE60E00F94F5F181E291EE60E00F94CA
:10EA4000C2F187EB91EE60E00F94F5F180E391EE77
:10EA500060E00F94C2F184EE90EE60E00F94F5F167
:10EA60008FE391EE60E00F94C2F186E090E061E008
:10EA700070E00F9434F20F94DCF18DE591EE60E0DC
:10EA80000F94C2F189EC91EE60E00F94F5F18EE401
:10EA900091EE60E00F94C2F183EC91EE60E00F9490
:10EAA000F5F18CE691EE60E00F94C2F18EE10F94E7
:10EAB0000DF288E90F940DF281E00F940DF20F949E
:10EAC000DCF18BE791EE60E00F94C2F119E0E0E039
:10EAD000F0E010935700E4918E2F0F940DF20F94F5
:10EAE000DCF18AE891EE60E00F94C2F1E3E0F0E03F
:10EAF00010935700E4918E2F0F940DF20F94DCF1D8
:10EB000089E991EE60E00F94C2F1E2E0F0E0109349
:10EB10005700E4918E2F0F940DF20F94DCF188EAE8
:10EB200091EE60E00F94C2F1E1E0F0E01093570045
:10EB30001491812F0F940DF20F94DCF107CF8BE825
:10EB400092EE62E00F94F5F18BE492EE60E00F94A8
:10EB5000F5F10F94DCF100E010E019C0C8016F2D51
:10EB60000F947FFEFF2031F489E492EE60E00F9471
:10EB7000C2F10BC0F092C6008091C00086FFFCCFAE
:10EB80008091C00080648093C0000F5F1F4FC80158
:10EB900081519F41A0E0B0E0ABBFFC01F790BAE229
:10EBA000FB1621F0E2E000301E07C1F60F94DCF105
:10EBB0000F94DCF187E592EE60E00F94F5F10F948D
:10EBC000DCF1CC24DD2400E010E01EC0C8010F946D
:10EBD00077FEF82E882331F489E492EE60E00F94FA
:10EBE000C2F10BC08093C6008091C00086FFFCCFAD
:10EBF0008091C00080648093C000FE1419F00894D6
:10EC0000C11CD11C0F5F1F4FC80181519F41A0E063
:10EC1000B0E0ABBFFC01E790FAE2EF1621F022E092
:10EC20000030120799F60F94DCF10F94DCF182E6C4
:10EC300092EE60E00F94C2F1C60161E070E00F94C3
:10EC400034F20F94DCF10F94DCF110920202109276
:10EC50000302109204021092050278CE89E992EE26
:10EC600062E00F94F5F1279A2F9A16C02F9880E052
:10EC700090E0E0EDF7E03197F1F7019684369105E9
:10EC8000C1F72F9A80E090E0E0EDF7E03197F1F7DF
:10EC9000019684369105C1F78091C00087FFE6CFC9
:10ECA0008091C00087FFFCCF64C485EA92EE62E0E9
:10ECB0000F94F5F140910202509103026091040219
:10ECC0007091050281E020E10F9491F2809102029F
:10ECD00090910302A0910402B091050280509F4FD1
:10ECE000AF4FBF4F8093020290930302A0930402A0
:10ECF000B093050280509041A040B04008F426CE69
:10ED0000A4CF83EB92EE62E00F94F5F140910602FE
:10ED100050910702609108027091090280E020E1A1
:10ED20000F9491F28091060290910702A09108023F
:10ED3000B091090280509F4FAF4FBF4F80930602A2
:10ED400090930702A0930802B0930902FFCD80ECD4
:10ED500092EE62E00F94F5F183E792EE60E00F949B
:10ED6000F5F18FE792EE60E00F94F5F18BE892EE0B
:10ED700060E00F94F5F189E992EE60E00F94F5F10F
:10ED800085EA92EE60E00F94F5F183EB92EE60E09D
:10ED90000F94F5F180EC92EE60E00F94F5F187ECC2
:10EDA00092EE60E00F94F5F188ED92EE60E00F9442
:10EDB000F5F18FED92EE60E00F94F5F18AEE92EEB0
:10EDC00060E00F94F5F183E093EEBDCD87EC92EE19
:10EDD00062E00F94F5F181E40F947BF282E40F94EA
:10EDE0007BF283E40F947BF284E40F947BF285E45E
:10EDF0000F947BF286E40F947BF287E40F947BF20E
:10EE000088E40F947BF28AE40F947BF28BE40F94F6
:10EE10007BF28CE40F947BF299CD88ED92EE62E068
:10EE20000F94F5F1772473948824992409C48FED05
:10EE300092EE62E00F94F5F140910A0250910B02BC
:10EE400060910C0270910D0282E020E10F9491F22A
:10EE500080910A0290910B02A0910C02B0910D02D8
:10EE600080509F4FAF4FBF4F80930A0290930B0289
:10EE7000A0930C02B0930D0269CD8AEE92EE62E08F
:10EE80000F94F5F184EE90EE60E00F94F5F18FECC5
:10EE900091EE60E00F94F5F1662477244301CC5D98
:10EEA000DE4F19821882C452D140D401C301B695F5
:10EEB000A79597958795CA5DDE4F88839983AA8326
:10EEC000BB83C652D140CC5DDE4FA881B981C4520C
:10EED000D1401196CC5DDE4FB983A883C452D14096
:10EEE000CD0162E070E00F9434F2B0E2B093C6005E
:10EEF0008091C00086FFFCCF8091C0008064809329
:10EF0000C000EDE2E093C6008091C00086FFFCCF18
:10EF10008091C00080648093C000F0E2F093C6004E
:10EF20008091C00086FFFCCF8091C00080648093F8
:10EF3000C000CA5DDE4FE880F9800A811B81C6529D
:10EF4000D140BB27A12F902F8F2D0F940DF2CA5DBA
:10EF5000DE4F8881C652D1400F940DF2B0E2FB2EF5
:10EF6000F092C6008091C00086FFFCCF8091C00067
:10EF700080648093C0000DE30093C6008091C000C0
:10EF800086FFFCCF8091C00080648093C00010E2B7
:10EF90001093C6008091C00086FFFCCF8091C00016
:10EFA00080648093C0008BBEF3012791C65DDE4F65
:10EFB0002883CA52D140A22EBB24CC24DD2408943D
:10EFC000611C711C811C911C8BBEF3018791282E42
:10EFD0003324442455240894611C711C811C911C09
:10EFE0008BBEF3013791C55DDE4F3883CB52D140E4
:10EFF0000894611C711C811C911C8BBEF30147910C
:10F00000C45DDE4F4883CC52D140ADEFEA2EAFEF66
:10F01000FA2EAFEF0A2FAFEF1A2F6E0C7F1C801E57
:10F02000911E142D032DF22CEE24EA0CFB1C0C1D5A
:10F030001D1D0F940DF220E22093C6008091C000A8
:10F0400086FFFCCF8091C00080648093C000C65DC5
:10F05000DE4F8881CA52D1400F940DF230E23093D6
:10F06000C6008091C00086FFFCCF8091C000806404
:10F070008093C000C45DDE4F8881CC52D1400F9494
:10F080000DF240E24093C6008091C00086FFFCCFA5
:10F090008091C00080648093C000C55DDE4F888190
:10F0A000CB52D1400F940DF250E25093C6008091A4
:10F0B000C00086FFFCCF8091C00080648093C000B8
:10F0C0008FEFE8168FEFF80680E0080780E018075A
:10F0D00031F484E092EE60E00F94C2F1DFC0D80119
:10F0E000C7018070907CA070B0708050904CA040A0
:10F0F000B040D1F52FEF3FE340E050E0E222F322B1
:10F1000004231523CA5DDE4FA880B980CA80DB8046
:10F11000C652D140AE0CBF1CC01ED11EAA0CBB1CD7
:10F12000CC1CDD1C8EE092EE60E00F94C2F1BB2798
:10F13000A12F902F8F2D0F940DF28E2D0F940DF285
:10F1400030E23093C6008091C00086FFFCCF8091F2
:10F15000C00080648093C0004EE34093C60080915D
:10F16000C00086FFFCCF87C08EE09EEFA0E0B0E03D
:10F17000E822F9220A231B239CE0E91694E9F90608
:10F1800090E0090790E0190709F088C0C45DDE4FE0
:10F19000A881CC52D140EA2EFF2400E010E0102FCD
:10F1A0000F2DFE2CEE24C55DDE4FB881CB52D14031
:10F1B000EB0EF11C011D111DD601C501817090706F
:10F1C000A070B070DC0199278827E80EF91E0A1F8D
:10F1D0001B1F20EF30E040E050E0A222B322C42207
:10F1E000D52241E1AA0CBB1CCC1CDD1C4A95D1F7F1
:10F1F000EA0CFB1C0C1D1D1D81E090E0A0E0B0E0BE
:10F20000282239224A225B2235E1220C331C441C7D
:10F21000551C3A95D1F7E20CF31C041D151D57013E
:10F220006801AA0CBB1CCC1CDD1C85E192EE60E0E1
:10F230000F94C2F1C801AA27BB270F940DF2BB2778
:10F24000A12F902F8F2D0F940DF28E2D0F940DF274
:10F2500090E29093C6008091C00086FFFCCF809121
:10F26000C00080648093C000AEE3A093C60080918C
:10F27000C00086FFFCCF8091C00080648093C000F6
:10F28000C601AA27BB270F940DF2BB27AD2D9C2DDD
:10F290008B2D0F940DF28A2D0F940DF20F94DCF14B
:10F2A000CC5DDE4FE881F981C452D140F99709F471
:10F2B0004DCBF4E0EF2EF12C012D112D6E0C7F1CA7
:10F2C000801E911EF2CD83E093EE62E00F94F5F183
:10F2D0008AE192EE60E00F94C2F18091C00087FF56
:10F2E000FCCF1091C6001F751093C6008091C0001E
:10F2F00086FFFCCF8091C00080648093C0000F9493
:10F30000DCF1812F81548A3108F036C1163409F4BA
:10F3100095C0173490F4133409F44EC0143430F40B
:10F320001134F1F0123409F01DC130C0143409F465
:10F3300059C0153409F016C16BC01A3409F4C4C0A1
:10F340001B3438F4173409F48FC0183409F00AC19B
:10F35000A1C01B3409F4D2C01C3409F003C1E8C0B9
:10F360008FEF81B90DC082B1809582B980E090E0C5
:10F37000E0EDF7E03197F1F70196883C9105C1F790
:10F380008091C00087FFEFCF12B8EFC08FEF84B934
:10F390000DC085B1809585B980E090E0E0EDF7E0A3
:10F3A0003197F1F70196883C9105C1F78091C00033
:10F3B00087FFEFCF15B8D9C08FEF87B90DC088B1DF
:10F3C000809588B980E090E0E0EDF7E03197F1F7C3
:10F3D0000196883C9105C1F78091C00087FFEFCF6F
:10F3E00018B8C3C08FEF8AB90DC08BB180958BB9A7
:10F3F00080E090E0E0EDF7E03197F1F70196883C8E
:10F400009105C1F78091C00087FFEFCF1BB8ADC059
:10F410008FEF8DB90DC08EB180958EB980E090E0F0
:10F42000E0EDF7E03197F1F70196883C9105C1F7DF
:10F430008091C00087FFEFCF1EB897C08FEF80BBD1
:10F440000DC081B3809581BB80E090E0E0EDF7E0F6
:10F450003197F1F70196883C9105C1F78091C00082
:10F4600087FFEFCF11BA81C08FEF83BB0DC084B38C
:10F47000809584BB80E090E0E0EDF7E03197F1F714
:10F480000196883C9105C1F78091C00087FFEFCFBE
:10F4900014BA6BC08FEF809301010FC080910201FD
:10F4A00080958093020180E090E0E0EDF7E03197F5
:10F4B000F1F70196883C9105C1F78091C00087FF64
:10F4C000EDCF1092020151C08FEF809304010FC065
:10F4D0008091050180958093050180E090E0E0ED4A
:10F4E000F7E03197F1F70196883C9105C1F78091DB
:10F4F000C00087FFEDCF1092050137C08FEF8093DA
:10F5000007010FC08091080180958093080180E079
:10F5100090E0E0EDF7E03197F1F70196883C910536
:10F52000C1F78091C00087FFEDCF109208011DC088
:10F530008FEF80930A010FC080910B01809580931B
:10F540000B0180E090E0E0EDF7E03197F1F70196F4
:10F55000883C9105C1F78091C00087FFEDCF1092E4
:10F560000B0103C085E292EEEEC98091C00087FFD7
:10F57000FCCF8091C600EAC988E392EEE4C98CE131
:10F5800091EEE1C988249924933011F1943028F444
:10F59000913089F09230B8F408C0953061F195301F
:10F5A000F0F0963009F048C043C02B3109F042C951
:10F5B00091E06BE13FC96227C15DDE4F2883CF52E6
:10F5C000D14092E037C9B22FA0E0622793E032C960
:10F5D000822F90E0A82BB92B622794E02BC92E3004
:10F5E00009F039C3622795E0C05DDE4F19821882A9
:10F5F000C053D1401FC9E1E0F0E0EC0FFD1FC05D3A
:10F60000DE4F08811981C053D140E00FF11F2083E4
:10F610000F5F1F4FC05DDE4F19830883C053D14079
:10F6200062270A171B0709F005C9D80196E002C92D
:10F63000261709F010C303C0973009F0FBC87724E0
:10F640009981933109F412C19431C8F4963009F4C8
:10F65000D8C0973050F4923009F406C1933009F4C1
:10F660006DC0913009F059C253C0913109F477C08F
:10F67000923108F0BBC0903109F04FC2F5C098310B
:10F6800009F487C0993150F4953109F4EFC09531F0
:10F6900008F4C6C1963109F040C2C2C19A3109F4DA
:10F6A0006CC09A3108F491C09B3109F45BC09D3164
:10F6B00009F033C29D81903359F48F81882311F46E
:10F6C0009EE11CC0813011F091E018C098E916C08D
:10F6D000892F807591F0903539F4E0E0F0E089E011
:10F6E0008093570094910AC0983539F4E3E0F0E034
:10F6F00089E080935700949101C090E01A821B82A8
:10F700008D818C831D829E831F8227E030E009C299
:10F710001A8288E08B8381E48C8386E58D8382E581
:10F720008E8389E48F8383E5888780E589878FE5E9
:10F730008A8782E38B872BE030E0F3C18A818139AD
:10F7400041F0823941F0803911F48FE005C080E04A
:10F7500003C082E001C08AE01A828B8344C0772410
:10F76000739482C08D81882311F48EE12CC0813086
:10F7700011F081E028C088E926C01A82E1E0F0E0BB
:10F7800089E08093570084918B831C8224E030E0D1
:10F79000C8C18B81803589F48C81883039F4E2E0EE
:10F7A000F0E089E08093570084910DC0E0E0F0E044
:10F7B00089E080935700849106C0E3E0F0E089E09F
:10F7C0008093570084911A82DFCF8D81836C99E0FA
:10F7D000E1E0F0E0082E90935700E89507B600FCB2
:10F7E000FDCF1A821B8223E030E09BC180EC8A832C
:10F7F000CE5CDE4F188219821A821B82C253D1401E
:10F800008EC18A8190E0A0E0B0E0582F44273327D2
:10F8100022278B8190E0A0E0B0E0DC0199278827C7
:10F82000282B392B4A2B5B2B8D8190E0A0E0B0E098
:10F83000282B392B4A2B5B2B8C8190E0A0E0B0E089
:10F84000BA2FA92F982F8827282B392B4A2B5B2BCF
:10F85000220F331F441F551FC05EDE4F288339839C
:10F860004A835B83C052D1401A8259C13A81C95C34
:10F87000DE4F3883C753D140CA5CDE4F1882C6536F
:10F88000D1408B81C82EDD24CA5CDE4F488159816E
:10F89000C653D140C42AD52A933109F082C0CE5C28
:10F8A000DE4F88819981AA81BB81C253D1408050AB
:10F8B000904CA340B04030F583E0CE5CDE4FE88052
:10F8C000F9800A811B81C253D140F70100935B008C
:10F8D00080935700E89507B600FCFDCFCE5CDE4F65
:10F8E000088119812A813B81C253D14000501F4FAA
:10F8F0002F4F3F4FCE5CDE4F088319832A833B8313
:10F90000C253D140C05EDE4F488159816A817B81FC
:10F91000C052D140DE011B9631E08C9111962C91A2
:10F9200011971296C75CDE4F2883C953D140C85C3B
:10F93000DE4F1882C853D14090E0C85CDE4FE881AA
:10F94000F981C853D1408E2B9F2B0C01FA01609393
:10F950005B0030935700E89511244E5F5F4F6F4F67
:10F960007F4F0EEFE02E0FEFF02ECE0CDF1CC114F8
:10F97000D10499F685E0C05EDE4F088119812A81A5
:10F980003B81C052D140F80120935B008093570027
:10F99000E89507B600FCFDCF81E180935700E8951C
:10F9A00035C0C05EDE4F88819981AA81BB81C0527B
:10F9B000D140B695A795979587957C018601ABE0D8
:10F9C000AA2EB12CAC0EBD1E0BC0D5016D915D01F0
:10F9D000C7010F947FFE0894E11CF11C01501040F8
:10F9E0000115110591F7A60160E070E0440F551F65
:10F9F000661F771FC05EDE4FE880F9800A811B8199
:10FA0000C052D1404E0D5F1D601F711F1A82C05E33
:10FA1000DE4F488359836A837B83C052D1407FC0C5
:10FA2000FA80C55CDE4FF882CB53D140C65CDE4F16
:10FA30001882CA53D1408B81C82EDD24C65CDE4FAC
:10FA400008811981CA53D140C02AD12A1A828981DA
:10FA5000BE016D5F7F4F843121F59601C05EDE4FA0
:10FA6000E880F9800A811B81C052D1400BBFF701A9
:10FA700087919691DB018C9311969C936E5F7F4FDB
:10FA8000D801C7010296A11DB11DC05EDE4F88835B
:10FA90009983AA83BB83C052D14022503040F1F6F3
:10FAA00036C0C05EDE4F288139814A815B81C052F9
:10FAB000D1400894C108D108760100E010E0089414
:10FAC000C11CD11C0894E11CF11C011D111DE20E8A
:10FAD000F31E041F151F21BDBB27A52F942F832FB5
:10FAE00082BD2F5F3F4F4F4F5F4FF89A80B5DB01CC
:10FAF0008D93BD012E153F054007510761F7C05E8C
:10FB0000DE4F288339834A835B83C052D1409601FC
:10FB10002D5F3F4FFB01108204C080EC8A8322E0FE
:10FB200030E08BE18093C6008091C00086FFFCCF5F
:10FB30008091C00080648093C000C15DDE4FF88179
:10FB4000CF52D140F093C6008091C00086FFFCCF19
:10FB50008091C00080648093C000432F3093C60022
:10FB60008091C00086FFFCCF8091C00080648093AC
:10FB7000C000922F2093C6008091C00086FFFCCF6A
:10FB80008091C00080648093C0008EE08093C600A6
:10FB90008091C00086FFFCCF8091C000806480937C
:10FBA000C00065E1C15DDE4FE880CF52D1406E25D7
:10FBB00069276427FE01319610C090819093C6009A
:10FBC0008091C00086FFFCCF31968091C000806498
:10FBD0008093C0006927215030402115310569F715
:10FBE0006093C6008091C00086FFFCCF8091C0006A
:10FBF00080648093C00085B1805885B9772081F4F6
:10FC0000C15DDE4F0881CF52D1400F5FC15DDE4F35
:10FC10000883CF52D14090E0A0E0B0E00D941AF4F8
:10FC200027982F9880E090E020ED37E0F901319798
:10FC3000F1F7019684369105C9F700008091C00064
:10FC40008D7F8093C00081E180935700E895EE2777
:10FC5000FF270994FFCF90E00D941AF497FB092E2B
:10FC600007260AD077FD04D02ED006D000201AF443
:10FC7000709561957F4F0895F6F7909581959F4F08
:10FC80000895A1E21A2EAA1BBB1BFD010DC0AA1FDD
:10FC9000BB1FEE1FFF1FA217B307E407F50720F0F5
:10FCA000A21BB30BE40BF50B661F771F881F991F70
:10FCB0001A9469F760957095809590959B01AC01B9
:10FCC000BD01CF010895AA1BBB1B51E107C0AA1FAC
:10FCD000BB1FA617B70710F0A61BB70B881F991FED
:10FCE0005A95A9F780959095BC01CD010895F99991
:10FCF000FECF92BD81BDF89A992780B50895262F31
:10FD0000F999FECF1FBA92BD81BD20BD0FB6F89400
:0EFD1000FA9AF99A0FBE01960895F894FFCF63
:040000033000E000E9
:00000001FF